:020000040000FA
:060000000A128A11FC2F18
:1000080083120313D1006E305102031C16293F30AE
:10001800A7000030A6000030A5000030A40064301E
:10002800F6000030F7005108C200C3014208F8008A
:100038004308F9000A168A15C4270A128A11760895
:1000480083120313C40001300310C40DFF3E031DC7
:1000580028280310440D7D3E84000A128A150A20C0
:100068000A128A11C5000A128A150A200A128A1170
:10007800C6000A128A150A200A128A11C7000A1233
:100088008A150A200A128A11C8004808AB004708D6
:10009800AA004608A9004508A8000A128A15A22144
:1000A8000A128A11831203132708D0002608CF00EA
:1000B8002508CE002408CD000A30F6000030F700ED
:1000C8005108C200C3014208F2004308F30064303B
:1000D800F0000030F1000A168A1592270A128A11D8
:1000E8007108F9007008F8000A168A15C4270A1260
:1000F8008A11760883120313C40001300310C40D5B
:10010800FF3E031D82280310440D593E84000A1245
:100118008A150A200A128A11C5000A128A150A20AD
:100128000A128A11C6000A128A150A200A128A11AE
:10013800C7000A128A150A200A128A11C80048083C
:10014800A7004708A6004608A5004508A4005008CF
:10015800AB004F08AA004E08A9004D08A8000A12D3
:100168008A15A2210A128A11831203132708CC00C8
:100178002608CB002508CA002408C9000A30F00068
:100188000030F1005108C200C3014208F2004308E0
:10019800F3000A168A1592270A128A117008831228
:1001A8000313C40001300310C40DFF3E031DD728FC
:1001B8000310440D353E84000A128A150A200A12DB
:1001C8008A11C5000A128A150A200A128A11C60065
:1001D8000A128A150A200A128A11C7000A128A15F9
:1001E8000A200A128A11C8004808A7004708A60072
:1001F8004608A5004508A4004C08AB004B08AA0017
:100208004A08A9004908A8000A128A15A2218312DF
:1002180003132708C1002608C0002508BF002408CA
:10022800BE0008000B305102031CC3293F30A70051
:100238000030A6000030A5000030A4000A30F60007
:100248000030F7005108C200C3014208F800430813
:10025800F9000A168A15C4270A128A117608831229
:100268000313C40001300310C40DFF3E031D3729DA
:100278000310440D593E84000A128A150A200A12F6
:100288008A11C5000A128A150A200A128A11C600A4
:100298000A128A150A200A128A11C7000A128A1538
:1002A8000A200A128A11C8004808AB004708AA00A9
:1002B8004608A9004508A8000A128A15A2210A12B0
:1002C8008A11831203132708D0002608CF002508B7
:1002D800CE002408CD000A30F0000030F1005108AB
:1002E800C200C3014208F2004308F3000A168A1547
:1002F80092270A128A11700883120313C40001306E
:100308000310C40DFF3E031D84290310440D353E20
:1003180084000A128A150A200A128A11C5000A12D4
:100328008A150A200A128A11C6000A128A150A209A
:100338000A128A11C7000A128A150A200A128A119B
:10034800C8004808A7004708A6004608A5004508B1
:10035800A4005008AB004F08AA004E08A9004D0899
:10036800A8000A128A15A221831203132708C100C4
:100378002608C0002508BF002408BE0008003F303A
:10038800A7000030A6000030A5000030A4005108E6
:10039800C20001300310C20DFF3E031DCE29031019
:1003A800420D353E84000A128A150A200A128A1163
:1003B800C3000A128A150A200A128A11C4000A12F6
:1003C8008A150A200A128A11C5000A128A150A20FB
:1003D8000A128A11C6004608AB004508AA0044085C
:1003E800A9004308A8000A128A15A2218312031340
:1003F8002708C1002608C0002508BF002408BE0041
:10040800080083160313BD00A130A5002508AE001F
:100418000130A007FF30200784000A128A150A203D
:100428000A128A11A5002508C20042080319F72FED
:10043800253042060319222A4208EC2FAF01B001E9
:10044800200884000A128A150A200A128A112E3AF4
:10045800031D6F2A30170130A5002508A007BB012E
:10046800BC01200884000A128A150A200A128A117F
:100478000A168A150C270A128A11031C752A831674
:1004880003133C08F1003B08F0000A30F20000308A
:10049800F3000A168A154E270A128A1183160313C7
:1004A800200884000A128A150A200A128A11700785
:1004B800A5000030031801307107A6002508D03EBA
:1004C800BB0026080318013EFF3EBC000130A50012
:1004D8002508A007352ABB01BC013016752A30153E
:1004E800912A013083160313A007FF3020078400E8
:1004F8000A128A150A200A128A11C200A500A6014A
:100508002608003A0319892A0C2A2508003A0319F3
:10051800F72F663A0319732A0C2A00302F05A50015
:1005280007303005A600250826040319B92F301E08
:10053800A12A0630BB000030BC002E0884008313BB
:100548000008BE00840A0008BF00840A0008C00032
:10055800840A0008C1000430A5002508AE07410838
:10056800F3004008F2003F08F1003E08F0000030B8
:10057800F7000030F6000030F5000030F4000A16ED
:100588008A1148230A128A110318E72A83160313CB
:100598004108F3004008F2003F08F1003E08F0006F
:1005A8000A168A1503270A128A1173088316031379
:1005B800C1007208C0007108BF007008BE00033097
:1005C800AF040030B00483160313B501B601410827
:1005D800F3004008F2003F08F1003E08F000003048
:1005E800F7000030F6000030F5000030F4000A167D
:1005F8008A114C200A128A110318EB2B0310831658
:100608000313400D410D823EB500FF300318003042
:10061800B600FF30B5070318B60AFF30B607033037
:10062800F0000030F1003608F3003508F2000A1631
:100638008A154E270A128A11710883160313B60009
:100648007008B5000A30F7000030F8003608FA00E4
:100658003508F9000A168A1122220A128A11780826
:1006680083160313B6007708B500B61F412BFF3079
:10067800B5070318B60AFF30B6073503FF3A0A1262
:100688008A15B7240A128A118312031341088316A4
:100698000313BA0083120313400883160313B90027
:1006A800831203133F0883160313B800831203133E
:1006B8003E0883160313B700410883120313A700EB
:1006C80083160313400883120313A600831603132B
:1006D8003F0883120313A500831603133E088312F1
:1006E8000313A400831603133A0883120313AB0001
:1006F80083160313390883120313AA0083160313FE
:10070800380883120313A9008316031337088312CA
:100718000313A8000A128A15A2210A128A11831249
:100728000313270883160313BA008312031326083A
:1007380083160313B90083120313250883160313C2
:10074800B80083120313240883160313B7003A086A
:10075800F3003908F2003808F1003708F0003F309C
:10076800F7008030F6000030F5000030F4000A167B
:100778008A1148230A128A110318CA2BFF308316DC
:100788000313B5070318B60AFF30EA2B83160313C1
:100798003A08F3003908F2003808F1003708F00089
:1007A8004130F7002030F6000030F5000030F4004A
:1007B8000A168A1148230A128A11031CEB2B0130EE
:1007C80083160313B5070318B60A0030B607831655
:1007D80003133C08803AFF0080307F02031DF62B8C
:1007E8000D303B0203183F2C831603133B080A12F3
:1007F8008A1104200A128A11831203134108D500B2
:100808004008D4003F08D3003E08D20083160313E3
:10081800410883120313D900831603134008831277
:100828000313D800831603133F0883120313D7005A
:10083800831603133E0883120313D6000A168A117F
:10084800D1250A128A11831203135508831603133C
:10085800C10083120313540883160313C0008312C4
:100868000313530883160313BF008312031352089C
:1008780083160313BE00831603133608803AFF005D
:1008880080307F02031D4A2C0A3035020318972C4A
:10089800831603134108F3004008F2003F08F100F3
:1008A8003E08F0000030F7000030F6000030F50098
:1008B8000030F4000A168A114C200A128A11031813
:1008C800002D83160313410883120313D4008316E3
:1008D8000313400883120313D300831603133F083E
:1008E80083120313D200831603133E0883120313E3
:1008F800D1000A168A11DB220A128A118312031305
:100908005408530452045104031D002D8316031385
:100918003608803AFF0080307F02031D952C023094
:100928003502031C002D831603133A08F300390817
:10093800F2003808F1003708F0004030F70089303D
:10094800F6007030F5005F30F4000A168A1148236B
:100958000A128A110318B22CF730B32CF830831618
:100968000313B5070318B60AFF30B60735080A128D
:100978008A15B7240A128A118312031341088316B1
:100988000313BA0083120313400883160313B90034
:10099800831203133F0883160313B800831203134B
:1009A8003E0883160313B7004108F3004008F2001D
:1009B8003F08F1003E08F0003A08F7003908F60051
:1009C8003808F5003708F4000A168A1127250A1294
:1009D8008A11730883160313B4007208B3007108F0
:1009E800B2007008B1000030C1000030C000003013
:1009F800BF000030BE00842D831603134108831204
:100A08000313D40083160313400883120313D3007F
:100A1800831603133F0883120313D20083160313AC
:100A28003E0883120313D1000A168A11DB220A1228
:100A38008A1183120313540883160313B400831214
:100A48000313530883160313B300831203135208C6
:100A580083160313B200831203135108831603137A
:100A6800B1003408F3003308F2003208F10031080D
:100A7800F00000300A168A11DB230A128A11730863
:100A880083120313E9007208E8007108E700700890
:100A9800E60083160313410883120313ED0083163F
:100AA8000313400883120313EC00831603133F0853
:100AB80083120313EB00831603133E0883120313F8
:100AC800EA000A128A15C1200A128A118312031336
:100AD800690883160313C100831203136808831679
:100AE8000313C00083120313670883160313BF00A0
:100AF80083120313660883160313BE00B501B601FB
:100B0800C201C20A4208A50001300310A50DFF3E2C
:100B1800031D892D0310250D693E84000A128A15CC
:100B28000A200A128A11A6000A128A150A200A1235
:100B38008A11A7000A128A150A200A128A11A80027
:100B48000A128A150A200A128A11A90029083402F1
:100B5800031DB82D28083302031DB82D27083202BB
:100B6800031DB82D26083102031CC22D0130A50033
:100B78002508C2070A304206031D862D03302F05BB
:100B8800A50000303005A600250826040319D72D36
:100B98002D30A5003D08840025088313800001300E
:100BA800A5002508BD070130C202420A03194C2ED0
:100BB8004208A50001300310A50DFF3E031DDF2DDF
:100BC8000310250D693E84000A128A150A200A12AC
:100BD8008A11F0000A128A150A200A128A11F100F5
:100BE8000A128A150A200A128A11F2000A128A15B4
:100BF8000A200A128A11F3003408F7003308F600B5
:100C08003208F5003108F4000A168A117D220A120A
:100C18008A11730883160313BA007208B9007108A1
:100C2800B8007008B7000030F3000030F200003060
:100C3800F1000A30F0003A08F7003908F6003808E1
:100C4800F5003708F4000A168A1129210A128A11B8
:100C5800730883160313BA007208B9007108B80044
:100C68007008B7003708303ECD2D30308316031397
:100C7800A5003D0884002508831380000130A500E5
:100C88002508BD07FF30B5070318B60AFF30B607B9
:100C98003608803AFF0080307F02031D552E013050
:100CA80035020318392E831603133C08803AFF00D7
:100CB80080307F02031D622E09303B02031C682E20
:100CC8000830831603136B2E831603133B08A50005
:100CD8002508C2004208A500A6012508BB0226086F
:100CE800031CBC03BC0242080319852E2E30A50044
:100CF8003D0884002508831380000130A5002508DD
:100D0800BD0742080A128A15B7240A128A118312EB
:100D18000313410883160313AD008312031340081D
:100D280083160313AC00831203133F0883160313BF
:100D3800AB00831203133E0883160313AA002D0881
:100D480083120313AB00831603132C0883120313B7
:100D5800AA00831603132B0883120313A900831612
:100D680003132A0883120313A800831603134108E8
:100D780083120313A7008316031340088312031377
:100D8800A600831603133F0883120313A5008316D6
:100D980003133E0883120313A4000A128A15A22122
:100DA8000A128A11831203132708D4002608D300D5
:100DB8002508D2002408D1000A168A11DB220A125B
:100DC8008A1183120313540883160313B400831281
:100DD8000313530883160313B30083120313520833
:100DE80083160313B20083120313510883160313E7
:100DF800B1000130C202420A0319B42F4208A5000B
:100E080001300310A50DFF3E031D052F0310250D0E
:100E1800693E84000A128A150A200A128A11F00013
:100E28000A128A150A200A128A11F1000A128A1572
:100E38000A200A128A11F2000A128A150A200A12D6
:100E48008A11F3003408F7003308F6003208F50079
:100E58003108F4000A168A117D220A128A117308D1
:100E680083160313BA007208B9007108B800700835
:100E7800B7000030F3000030F2000030F1000A3013
:100E8800F0003A08F7003908F6003808F500370886
:100E9800F4000A168A1129210A128A117308831686
:100EA8000313BA007208B9007108B8007008B700D7
:100EB8003708303EA5003D088400250883138000CC
:100EC8000130A5002508BD074208A5000130031020
:100ED800A50DFF3E031D6B2F0310250D693E8400F1
:100EE8000A128A150A200A128A11F0000A128A15B3
:100EF8000A200A128A11F1000A128A150A200A1217
:100F08008A11F2000A128A150A200A128A11F300BD
:100F18003408F7003308F6003208F5003108F40009
:100F28000A168A1129210A128A11730883160313D3
:100F3800B4007208B3007108B2007008FC2E30309B
:100F4800A5003D0884002508831380000130A50012
:100F58002508BD07FF30BB070318BC0AFF30BC07D4
:100F68003B083C0403190C2AA32F3B083C04031D2F
:100F7800C92F3408330432043104031DC92F01304A
:100F8800BB070318BC0A0030BC073C08803A803C09
:100F9800031DD02F3B084202031CDF2F83160313C7
:100FA8003C08803AA50080302502031DDD2F420849
:100FB8003B02031CDF2F0330831603132F05A50004
:100FC80000303005A6002508260403190C2A2D3008
:100FD800A5003D0884002508831380000130A50082
:100FE8002508BD070C2A3D088400831380010800EA
:100FF80083010A128A15E328FF1B0A2883137F1826
:1010080083170008840A0319FF0A080008308A00B9
:101018000408840A820700340034003480343F34E2
:10102800003400342034413400340034C8344234AD
:10103800003400347A344434003440341C344634A8
:1010480000345034C33447340034243474344934BD
:101058008034963418344B342034BC34BE344C3489
:1010680028346B346E344E34F93402341534503429
:10107800EC347834AD346034CA34F23449347134E1
:101088000034003480343F34CD34CC34CC343D3457
:101098000A34D73423343C346F34123483343A342A
:1010A8001734B734D1343834AC34C53427343734F2
:1010B800BD343734863435349534BF34D63433347C
:1010C8007734CC342B3432345F3470348934303450
:1010D800FF34E634DB342E340834E5343C341E3433
:1010E80060344234A2340D34013400340034003406
:1010F8000A340034003400346434003400340034DA
:10110800E834033400340034103427340034003415
:10111800A034863401340034403442340F3400346F
:1011280080349634983400340034E134F53405348E
:101138000034CA349A343B344334753472347234CC
:1011480020344C3469346D346934743420340034B8
:1011580025342E3431346634003425342E34323478
:10116800663400342034413420340034203456347A
:101178002034003420344134003480308312031387
:10118800E9066D08D5006C08D4006B08D3006A081E
:10119800D2006908D9006808D8006708D70066082F
:1011A800D6000A168A11D125831203135508E900BF
:1011B8005408E8005308E7005208E60008008316C0
:1011C800031386010A168A1175210A128A150A164E
:1011D8008A1100200A128A15F401F40A01300A164D
:1011E8008A1194200A128A15413083160313E100EC
:1011F8004830E0000030DF000030DE00A230C300DD
:101208004308A0006108A4006008A3005F08A200CA
:101218005E08A100C6300A128A1105220A128A1530
:10122800C630F9000030FA000A168A110B200A129B
:101238008A15AB30F9008030FA000A168A110B20A3
:101248000A128A15413083160313E1004830E00082
:101258000030DF000030DE00A230C3004308A000E9
:101268006108A4006008A3005F08A2005E08A1004E
:10127800CE300A128A1105220A128A15CE30F900D8
:101288000030FA000A168A110B200A128A15A730B4
:10129800F9008030FA000A168A110B200A128A1502
:1012A800F401F40A02300A168A1194200A128A15E7
:1012B8009130F9008030FA000A168A110B200A12C0
:1012C8008A15403083160313E1002030E000003017
:1012D800DF000030DE009D30C3004308A000610835
:1012E800A4006008A3005F08A2005E08A100D63031
:1012F8000A128A1105220A128A15D630F90000301E
:10130800FA000A168A110B200A128A15AF30F90062
:101318008030FA000A168A110B200A128A150B303F
:1013280083160313C5002630C4005D30C300C30B09
:101338009B29C40B9B29C50B9B29F02883120313F7
:1013480027088039AC002C08B1002708AC002C070E
:10135800AD002D08B700A61B371437080319C1299B
:10136800370A031DBF290030A7000030A60000304F
:10137800A5000030A400A617C9290030A700003036
:10138800A6000030A5000030A4002B088039AC006E
:101398002C08B1062B08AC002C07AD002D08B600B0
:1013A800AA1B361436080319E629360A031DE42950
:1013B8000030AB000030AA000030A9000030A800BF
:1013C800AA17EE290030AB000030AA000030A900AF
:1013D8000030A8003608031D3708031DFC2900301B
:1013E800A7000030A6000030A5000030A4000800C7
:1013F8002408AC002C08F0002A080A168A156F2762
:101408000A128A15710883120313BD007008BC0004
:101418003C08AC00AD01AE01AF012F08B5002E08A5
:10142800B4002D08B3002C08B2003D08AC00AD0193
:10143800AE01AF012F08BB002E08BA002D08B90075
:101448002C08B8002508AC002C08F00029080A165A
:101458008A156F270A128A15710883120313BD00B3
:101468007008BC003C08AC00AD01AE01AF012C080F
:10147800B2072D0803110318013E031DB3072E08F8
:1014880003110318013E031DB4072F0803110318A5
:10149800013E031DB5073D08AC00AD01AE01AF012B
:1014A8002C08B8072D0803110318013E031DB907BE
:1014B8002E0803110318013E031DBA072F08031154
:1014C8000318013E031DBB072608AC002C08F000DA
:1014D80028080A168A156F270A128A1571088312B6
:1014E8000313BD007008BC003C08AC00AD01AE01A0
:1014F800AF012C08B2072D0803110318013E031D84
:10150800B3072E0803110318013E031DB4072F0863
:1015180003110318013E031DB5073D08AC00AD01DA
:10152800AE01AF012C08B8072D0803110318013EBE
:10153800031DB9072E0803110318013E031DBA073E
:101548002F0803110318013E031DBB070830AC0028
:101558000310B20DB30DB40DB50DAC0BAC2A2508B4
:10156800AC002C08F00028080A168A156F270A1202
:101578008A15710883120313BD007008BC003C086B
:10158800AC003D08AD00AE01AF012C08B2072D0834
:1015980003110318013E031DB3072E080311031896
:1015A800013E031DB4072F0803110318013E031D54
:1015B800B5072408AC002C08F00029080A168A157B
:1015C8006F270A128A15710883120313BD00700869
:1015D800BC003C08AC003D08AD00AE01AF012C08D2
:1015E800B2072D0803110318013E031DB3072E0887
:1015F80003110318013E031DB4072F080311031834
:10160800013E031DB5070830AC000310B20DB30D41
:10161800B40DB50DAC0B092B2408AC002C08F00058
:1016280028080A168A156F270A128A157108831264
:101638000313BD007008BC003C08AC003D08AD00B9
:10164800AE01AF012C08B2072D0803110318013EA3
:10165800031DB3072E0803110318013E031DB40729
:101668002F0803110318013E031DB5072508AC0018
:101678002C08F0002A080A168A156F270A128A15FC
:10168800710883120313BD007008BC003C08AC004D
:101698003D08AD00AE01AF012C08B8072D080311B5
:1016A8000318013E031DB9072E0803110318013E54
:1016B800031DBA072F0803110318013E031DBB07BA
:1016C8002608AC002C08F00029080A168A156F278E
:1016D8000A128A15710883120313BD007008BC0032
:1016E8003C08AC003D08AD00AE01AF012C08B807BE
:1016F8002D0803110318013E031DB9072E08031115
:101708000318013E031DBA072F0803110318013EF1
:10171800031DBB072608AC002C08F0002A080A168F
:101728008A156F270A128A15710883120313BD00E0
:101738007008BC003C08AC003D08AD00AE01AF012C
:1017480008300310AC0DAD0DAE0DAF0DFF3E031DFF
:10175800A52B2C08B8072D0803110318013E031DFB
:10176800B9072E0803110318013E031DBA072F08F5
:1017780003110318013E031DBB073208AC003308F0
:10178800AD003408AE003508AF0018300310AF0CB8
:10179800AE0CAD0CAC0CFF3E031DCA2B2C08B807D1
:1017A8002D0803110318013E031DB9072E08031164
:1017B8000318013E031DBA072F0803110318013E41
:1017C800031DBB070830AC000310B20DB30DB40DF8
:1017D800B50DAC0BE82B37083607AC00AD01AD0DE5
:1017E8002C08823EBC002D080318013EFF3EBD00B8
:1017F800BA1B192C0130AC000310B80DB90DBA0D85
:10180800BB0DAC0B002CB51B38140130AC00031019
:10181800B20DB30DB40DB50DAC0B0B2CFF30BC07DE
:101828000318BD0AFF30BD07FC2BB601B51F322CCB
:10183800FF303205AC00FF303305AD00FF30340512
:10184800AE007F303505AF002F082E042D042C0480
:1018580003193818302C322CB601B60A3608031989
:10186800642C0130B807003003180130B907003084
:1018780003180130BA07003003180130BB073B1CBE
:10188800642C3808AC003908AD003A08AE003B08B3
:10189800AF000130B0002F0DAF0CAE0CAD0CAC0C8E
:1018A800B00B4F2C2F08BB002E08BA002D08B9002A
:1018B8002C08B8000130BC070318BD0A0030BD076A
:1018C8003D08803AFF0080307F02031D6D2CFF30F9
:1018D8003C02031C7A2C7F3083120313BB00803038
:1018E800BA000030B9000030B800AA2C83120313E4
:1018F8003D08803AFF0080307F02031D852C0130AF
:101908003C020318932C003083120313BB000030F1
:10191800BA000030B9000030B800B101AA2C831217
:1019280003133C08AC002C08B700FF30B805FF30A3
:10193800B9057F30BA050030BB053718BA17370824
:10194800AC0003102C0CAD002D08BB003108AC0016
:101958002C08BB043B08A7003A08A6003908A500D4
:101968003808A400080083120313D000D01F5F2E8C
:10197800D009D00A5008803A123E031CA92D0A301B
:10198800F7000030F8005008F200F301F21BF303EF
:101998006430F0000030F1000A168A11DE200A12C5
:1019A8008A157108FA007008F9000A168A112222AD
:1019B8000A128A15770883120313C2000130031034
:1019C800C20DFF3E031DE32C0310420D593E840057
:1019D8000A128A150A200A128A15C3000A128A15E1
:1019E8000A200A128A15C4000A128A150A200A1245
:1019F8008A15C5000A128A150A200A128A15C60015
:101A08004608A7004508A6004408A5004308A40006
:101A18006430F7000030F8005008F900FA01F91BAB
:101A2800FA030A168A1122220A128A1577088312E3
:101A38000313C70001300310C70DFF3E031D1F2D00
:101A48000310470D7D3E84000A128A150A200A12E7
:101A58008A15C8000A128A150A200A128A15C900AE
:101A68000A128A150A200A128A15CA000A128A1549
:101A78000A200A128A15CB004B08AB004A08AA00B4
:101A88004908A9004808A8000A128A15A2210A12C2
:101A98008A15831203132708CF002608CE002508CD
:101AA800CD002408CC000A30F0000030F1005008C6
:101AB800F200F301F21BF3030A168A11DE200A1260
:101AC8008A15700883120313C20001300310C20D77
:101AD800FF3E031D6A2D0310420D353E84000A1295
:101AE8008A150A200A128A15C3000A128A150A20C2
:101AF8000A128A15C4000A128A150A200A128A15BF
:101B0800C5000A128A150A200A128A15C600460854
:101B1800A7004508A6004408A5004308A4004F08EC
:101B2800AB004E08AA004D08A9004C08A8000A12EC
:101B38008A15A221831203132708C1002608C000B2
:101B48002508BF002408BE0008005008803A753EEA
:101B5800031C342E0A30F0000030F1005008F20067
:101B6800F301F21BF3030A168A11DE200A128A1502
:101B7800700883120313C20001300310C20DFF3E28
:101B8800031DC12D0310420D353E84000A128A152B
:101B98000A200A128A15C3000A128A150A200A1294
:101BA8008A15C4000A128A150A200A128A15C50065
:101BB8000A128A150A200A128A15C6004608A700C2
:101BC8004508A6004408A5004308A4000A30F70009
:101BD8000030F8005008F900FA01F91BFA030A1658
:101BE8008A1122220A128A15770883120313C70062
:101BF80001300310C70DFF3E031DFD2D0310470DD7
:101C0800593E84000A128A150A200A128A15C80049
:101C18000A128A150A200A128A15C9000A128A1598
:101C28000A200A128A15CA000A128A150A200A12FC
:101C38008A15CB004B08AB004A08AA004908A9003E
:101C48004808A8000A128A15A2218312031327083C
:101C5800C1002608C0002508BF002408BE000800EF
:101C68005008C20001300310C20DFF3E031D372E7D
:101C78000310420D353E84000A128A150A200A1202
:101C88008A15C3000A128A150A200A128A15C40086
:101C98000A128A150A200A128A15C5000A128A151C
:101CA8000A20C6004608C1004508C0004408BF0015
:101CB8004308BE0008005008803A123E031C4A2F11
:101CC8000A30F7000030F8005008F200F301F21B68
:101CD800F3036430F0000030F1000A168A11DE20A8
:101CE8000A128A157108FA007008F9000A168A1192
:101CF80022220A128A15770883120313C2000130C0
:101D08000310C20DFF3E031D842E0310420D253E15
:101D180084000A128A150A200A128A15C3000A12B8
:101D28008A150A200A128A15C4000A128A150A207E
:101D38000A128A15C5000A128A150A200A128A157B
:101D4800C6004608A7004508A6004408A5004308A1
:101D5800A4006430F7000030F8005008F900FA01D8
:101D6800F91BFA030A168A1122220A128A15770821
:101D780083120313C70001300310C70DFF3E031D74
:101D8800C02E0310470D493E84000A128A150A2006
:101D98000A128A15C8000A128A150A200A128A1518
:101DA800C9000A128A150A200A128A15CA000A12DC
:101DB8008A150A200A128A15CB004B08AB004A087C
:101DC800AA004908A9004808A8000A128A15A221F1
:101DD8000A128A15831203132708CF002608CE009B
:101DE8002508CD002408CC000A30F0000030F100AE
:101DF8005008F200F301F21BF3030A168A11DE20E1
:101E08000A128A15700883120313C20001300310E6
:101E1800C20DFF3E031D0B2F0310420D013E84002F
:101E28000A128A150A200A128A15C3000A128A158C
:101E38000A200A128A15C4000A128A150A200A12F0
:101E48008A15C5000A128A150A200A128A15C600C0
:101E58004608A7004508A6004408A5004308A400B2
:101E68004F08AB004E08AA004D08A9004C08A8006E
:101E78000A128A15A221831203132708C100260813
:101E8800C0002508BF002408BE0008005008803A9A
:101E9800753E031CD52F0A30F0000030F1005008C1
:101EA800F200F301F21BF3030A168A11DE200A126C
:101EB8008A15700883120313C20001300310C20D83
:101EC800FF3E031D622F0310420D013E84000A12DB
:101ED8008A150A200A128A15C3000A128A150A20CE
:101EE8000A128A15C4000A128A150A200A128A15CB
:101EF800C5000A128A150A200A128A15C600460861
:101F0800A7004508A6004408A5004308A4000A3015
:101F1800F7000030F8005008F900FA01F91BFA033D
:101F28000A168A1122220A128A15770883120313C5
:101F3800C70001300310C70DFF3E031D9E2F03107D
:101F4800470D253E84000A128A150A200A128A15AE
:101F5800C8000A128A150A200A128A15C9000A122C
:101F68008A150A200A128A15CA000A128A150A2036
:101F78000A128A15CB004B08AB004A08AA00490888
:101F8800A9004808A8000A128A15A221831203137F
:101F98002708C1002608C0002508BF002408BE0085
:101FA80008005008C20001300310C20DFF3E031D97
:101FB800D82F0310420D013E84000A128A150A2008
:101FC8000A128A15C3000A128A150A200A128A15EB
:101FD800C4000A128A150A200A128A15C5000A12B4
:101FE8008A150A20C6004608C1004508C0004408F2
:101FF800BF004308BE00080000300A168A153427BF
:102008000A168A1101300A168A1534270800831225
:102018000313A001A10120087907FC007A08FB003E
:102028000318FB0AA01BFB037B08FD007D08831235
:102038000313FF007C0884000A128A1500200A1680
:102048008A11003A0319080020087907FC007A0869
:10205800FB000318FB0AA01BFB037B08FD007D089F
:1020680083120313FF007C0884000A128A150020DB
:102078000A168A110A168A11C7210A168A1101300E
:1020880083120313A0070318A10A0030A1070F2821
:1020980000307005F80000307105F90080307205D5
:1020A800FA007F307305FB007B087A047904780412
:1020B800031D66280030F3000030F2000030F10004
:1020C8000030F00000307405F80000307505F900A4
:1020D80080307605FA007F307705FB007B087A04AC
:1020E80079047804031D80280030F7000030F600DA
:1020F8000030F5000030F40077087306031D8E28C1
:1021080076087206031D8E2875087106031D8E2831
:1021180074087006031992280310080003140800B5
:10212800F7007703031DB92874087F3EF50075088A
:10213800FA007A08F50004300310F50CFF3E031D81
:10214800A0287508F6007608F8007A080F39F50017
:102158007508F90078080A168A1534270A168A11AC
:1021680079080A168A153427080002307706031DF5
:1021780008007408BF3EF5007508FA007A08F500F3
:1021880004300310F50CFF3E031DC5287508F60042
:102198007608F8007A080F39F5007508F90078080C
:1021A8000A168A1534270A168A1179080A168A1512
:1021B80034270800F601F31FE828F209F309F20AA8
:1021C8000319F30AF601F60AF11FEF28F009F109DD
:1021D800F00A0319F10A7008710403191C29F501A2
:1021E800F50AF11B032901300310F00DF10DFF3E34
:1021F800031DF8280130F4007408F507F528710864
:102208007302031D092970087202031C1129700842
:10221800F2027108031CF303F30201300310F10CFE
:10222800F00CFF3E031D12290130F502031D03299E
:10223800760803192429F209F309F20A0319F30AA3
:102248007308F1007208F000080073087204710442
:10225800700403196C29F901F90AF31B41290130AB
:10226800F8000310F00DF10DF20DF30DF80B352900
:102278000130F8007808F907312973087702031D3F
:102288004F2972087602031D4F2971087502031D34
:102298004F2970087402031C5F297008F402710842
:1022A800031C710FF5027208031C720FF602730803
:1022B800031C730FF70201300310F30CF20CF10C3E
:1022C800F00CFF3E031D60290130F902031D41296E
:1022D8007708F3007608F2007508F1007408F0003A
:1022E800080000300A168A151A270A168A110330C0
:1022F8000A168A1534270A168A110730F5007D3028
:10230800F400F40B8529F50B852903300A168A1584
:1023180034270A168A110F30F5004730F400F40B01
:102328009329F50B9329982903300A168A1534271F
:102338000A168A1102300A168A1534270A168A11D3
:1023480002300A168A1534270A168A1108300A1626
:102358008A1534270A168A1100300A168A15342776
:102368000A168A110C300A168A1534270A168A1199
:1023780000300A168A1534270A168A1106300A16FA
:102388008A1534270800F40074080F39F100710821
:10239800F2007408F039F1007108F3008312031396
:1023A80086147308F10004300310F10CFF3E031D7E
:1023B800D82971080A168A151A270A168A1183124B
:1023C800031306153330F5008230F6000000FF30A5
:1023D800F5070318F60AFF30F6077608803AFF007B
:1023E80080307F02031DFA2901307502031CEA2997
:1023F80083120313061172080A168A151A270A1679
:102408008A118312031306153330F7008230F8005F
:102418000000FF30F7070318F80AFF30F8077808BC
:10242800803AFF0080307F02031D1C2A01307702AA
:10243800031C0C2A831203130611080083120313CA
:10244800A101F81F2E2AF709F809F70A0319F80A53
:10245800A101A10AFA1F392AF909FA09F90A031987
:10246800FA0A0130FB007B08A106A201A301770844
:1024780078040319702AA001A00AF81B4F2A01301A
:102488000310F70DF80DFF3E031D442A0130FB0031
:102498007B08A007412A01300310A20DA30DFF3EBF
:1024A800031D502A78087A02031D5C2A77087902EE
:1024B800031C652A7708F9027808031CFA03FA0254
:1024C800221401300310F80CF70CFF3E031D662A96
:1024D8000130A002031D4F2A21080319782AA209F6
:1024E800A309A20A0319A30A2308F8002208F7007F
:1024F80008000030FC000030FB000030FA0000301B
:10250800F90073087204710470040319D22AFD01DA
:10251800FD0AF31B9D2A0130F8000310F00DF10DA0
:10252800F20DF30DF80B912A0130F8007808FD0739
:102538008D2A0130F8000310F90DFA0DFB0DFC0D82
:10254800F80B9F2A73087702031DB42A72087602D3
:10255800031DB42A71087502031DB42A7008740299
:10256800031CC52A7008F4027108031C710FF502D8
:102578007208031C720FF6027308031C730FF7022C
:10258800791401300310F30CF20CF10CF00CFF3E3F
:10259800031DC62A0130FD02031D9D2A7C08F30095
:1025A8007B08F2007A08F1007908F00008000310AF
:1025B80083120313530D540DD5005508DB005B0837
:1025C800031DEF2A0030D4000030D3000030D200C1
:1025D8000030D10008005108D5005208D600530831
:1025E800D7005408D8001F300310D80CD70CD60CCD
:1025F800D50CFF3E031DF82A5508D9005908DA0002
:10260800D317FF30D105FF30D205FF30D305003096
:10261800D4059630DB02DB1F262B5B08803A973EF9
:10262800031CE62A01300310D40CD30CD20CD10CB5
:10263800FF3E031D172B0130D5005508DB07031992
:10264800392B162B20305B020318E62A5B08031986
:10265800392B0130D5000310D10DD20DD30DD40D77
:10266800D50B2F2B0130DB022A2B5A08031908003F
:10267800D109D209D309D409D10A0319D20A0319F5
:10268800D30A0319D40A080000307005F800003096
:102698007105F90080307205FA007F307305FB0080
:1026A8007B087A0479047804031D622B0030F30058
:1026B8000030F2000030F1000030F0000030740506
:1026C800F80000307505F90080307605FA007F3093
:1026D8007705FB007B087A0479047804031D7C2BBA
:1026E8000030F7000030F6000030F5000030F4004C
:1026F800F31FA22B0030F8000030F9000030FA0078
:102708008030FB007008F8027108031C710F8D2BD4
:102718008E2BF9027208031C720F932B942BFA026A
:102728007308031C730F992B9A2BFB027B08F30089
:102738007A08F2007908F1007808F000F71FC82B32
:102748000030F8000030F9000030FA008030FB005B
:102758007408F8027508031C750FB32BB42BF90223
:102768007608031C760FB92BBA2BFA027708031CDC
:10277800770FBF2BC02BFB027B08F7007A08F60007
:102788007908F5007808F4008030F3068030F70601
:1027980077087302031D080076087202031D0800FB
:1027A80075087102031D0800740870020800F8001B
:1027B8007808031DF31FF02B7009FA007109FB005C
:1027C8007209FC007309FD00FA0A0319FB0A0319D0
:1027D800FC0A0319FD0AF82B7308FD007208FC00B7
:1027E8007108FB007008FA00730872047104700421
:1027F800031D072C0030F3000030F2000030F10018
:102808000030F00008009630F4007408F900FE303B
:102818007D050319382C0130F4007408F9070130DC
:102828000310FD0CFC0CFB0CFA0CFF3E031D142CD2
:102838000B2C0130F4007408F9070130FA07003056
:1028480003180130FB07003003180130FC07003083
:1028580003180130FD0701300310FD0CFC0CFB0CC4
:10286800FA0CFF3E031D302CFF307D0503194C2C5C
:102878001D2C02307902031C4E2C0130F902013064
:10288800F4000310FA0DFB0DFC0DFD0DF40B452CA7
:10289800FC1F3D2C7918582CFF30FA05FF30FB053A
:1028A8007F30FC05FF30FD050310F90C7908F400B2
:1028B800F501F601F70118300310F40DF50DF60DCA
:1028C800F70DFF3E031D602C7408FA047508FB041D
:1028D8007608FC047708FD047808031DF31F752C9F
:1028E800FD177D08F3007C08F2007B08F1007A08E8
:1028F800F00008007008F8007108F9007208FA0082
:102908000310790D7A0DFB007B0883120313A500D1
:102918002508031D982C0030F3000030F200003029
:10292800F1000030F00008007408F8007508F9009C
:102938007608FA000310790D7A0DFB007B08A400D5
:10294800240803198F2CF117FF30F005FF30F1052B
:102958000030F205F517FF30F405FF30F5050030BB
:10296800F6050030A3000030A2000030A1000030BE
:10297800A0007F30A50298302407F8007808A50247
:102988001830F8007808A4000130F8000310A00DF2
:10299800A10DA20DA30DF80BCA2C76087202031D17
:1029A800DB2C75087102031DDB2C74087002031CF4
:1029B800E82C7408F0027508031C750FF1027608FC
:1029C800031C760AF202201401300310F00DF10DF9
:1029D800F20DFF3E031DE92C0130A402031DC82C93
:1029E800A51F0B2D2508803A973E031C8F2C01301C
:1029F8000310A30CA20CA10CA00CFF3E031DFC2C81
:102A08000130F8007808A50703191E2DFB2C183093
:102A1800250203188F2C250803191E2D0130F800F4
:102A28000310A00DA10DA20DA30DF80B142D01305C
:102A3800A5020F2D2308F3002208F2002108F10057
:102A48002008F00008000310720D730DF8007808D4
:102A580083120313A5002508031D3B2D0030F30046
:102A68000030F2000030F1000030F00008000310E0
:102A7800760D770DF8007808A40024080319322D84
:102A8800F217FF30F005FF30F105FF30F205003096
:102A9800F305F617FF30F405FF30F505FF30F605AE
:102AA8000030F7050030A3000030A2000030A1007C
:102AB8000030A0007F30A502A0302407F800780875
:102AC800A5022030F8007808A4000130F8000310AF
:102AD800A00DA10DA20DA30DF80B6B2D77087302A5
:102AE800031D802D76087202031D802D7508710262
:102AF800031D802D74087002031C912D7408F002C8
:102B08007508031C750FF1027608031C760FF20294
:102B18007708031C770FF30220140130F800031024
:102B2800F00DF10DF20DF30DF80B932D0130A40209
:102B3800031D692DA51FB52D2508803A9F3E031C4E
:102B4800322D01300310A30CA20CA10CA00CFF3EE7
:102B5800031DA62D0130F8007808A5070319C82D14
:102B6800A52D203025020318322D25080319C82D5C
:102B78000130F8000310A00DA10DA20DA30DF80B54
:102B8800BE2D0130A502B92D2308F3002208F2005A
:102B98002108F1002008F0000800831203135508EB
:102BA8008039DA005A08E2005508DA005A07DB00D3
:102BB8005B08E400D41B641464080319F12D640A4B
:102BC800031DEE2D0030D5000030D4000030D300B6
:102BD8000030D200D417D501F92D0030D5000030CF
:102BE800D4000030D3000030D20059088039DA0010
:102BF8005A08E30063086206031D62175908DA00E1
:102C08005A07DB005B08E300D81B63146308031949
:102C18001B2E630A031D182E0030D9000030D8007F
:102C28000030D7000030D600D817D901232E003045
:102C3800D9000030D8000030D7000030D600640832
:102C480063020318692E621F2D2E8030DA005A089D
:102C5800E2066408DA005A08E5006308DA005A0850
:102C6800E4006508DA005A08E3005208DA005A0856
:102C7800E5005608DA005A08D2006508DA005A0852
:102C8800D6005308DA005A08E5005708DA005A084F
:102C9800D3006508DA005A08D7005408DA005A0841
:102CA800E5005808DA005A08D4006508DA005A081E
:102CB800D8005508DA005A08E5005908DA005A0819
:102CC800D5006508DA005A08D900E5016308DA007A
:102CD800DB015B08DD0064085A02DC00031CDD032D
:102CE8005D08803AFF0080307F02031D7D2E1A3078
:102CF8005C02031CB62E83120313550854045304B4
:102D080052040319892E01308A2E0030DA005A083D
:102D1800E5000030D5000030D4000030D30000308A
:102D2800D2006308DA005A08E400BC2E651CA52E00
:102D38006508DA0003105A0C0138DB005B08E5006F
:102D4800A72E0310E50C5218E5170130DA00550DCF
:102D5800D50CD40CD30CD20CDA0BAB2E0130DA0024
:102D68005A08E4078312031363086402031C9A2EAB
:102D7800621BFD2E6408031DCA2E0030D5000030EA
:102D8800D4000030D3000030D20008005608D20723
:102D9800570803110318013E031DD30758080311F0
:102DA8000318013E031DD407590803110318013EF7
:102DB800031DD507551C9F2F651CEB2E6508DA00EF
:102DC80003105A0C0138DB005B08E500ED2E0310F8
:102DD800E50C5218E5170130DA00550DD50CD40C66
:102DE800D30CD20CDA0BF12E0130DA005A08E407C2
:102DF8009F2F5508803AFF005908803A7F02031D2B
:102E08000F2F58085402031D0F2F57085302031D94
:102E18000F2F560852020318672FFF30DA00FF30D1
:102E2800DB00FF30DC00FF30DD005608DE0057080D
:102E3800DF005808E0005908E1005208DE02530894
:102E4800031C530F282F292FDF025408031C540F8B
:102E58002E2F2F2FE0025508031C550F342F352F26
:102E6800E1025E08DA075F0803185F0F3C2F3D2F69
:102E7800DB0760080318600F422F432FDC07610847
:102E88000318610ADD075D08D5005C08D4005B08FB
:102E9800D3005A08D2008030DA005A08E206E50961
:102EA800E50A6508031D752F0130D20700300318A5
:102EB8000130D307003003180130D407003003185D
:102EC8000130D507752F5608D2025708031C570F33
:102ED800D3025808031C580FD4025908031C590F71
:102EE800D5025508540453045204031D9D2F650848
:102EF800031D9D2F0030D5000030D4000030D300D2
:102F08000030D20008000130DA000310D20DD30DD2
:102F1800D40DD50DDA0B892FE51B5214651C962F9D
:102F28000314972F0310E50D640803199D2F013032
:102F3800E402D41F872FE301E51FAA2F65087F3914
:102F480003195218A82FAA2FE301E30A63080319EB
:102F5800DD2F0130D207003003180130D3070030CD
:102F680003180130D407003003180130D507551C69
:102F7800DD2F5208DA005308DB005408DC0055083E
:102F8800DD000130DE005D0DDD0CDC0CDB0CDA0C45
:102F9800DE0BC72F5D08D5005C08D4005B08D300A2
:102FA8005A08D200640A0319DD2F0130DA005A08E2
:102FB800E407640A031D6408031DED2F0030D500E3
:102FC8000030D4000030D3000030D2006408031968
:102FD800E201641CF12FD417F52F7F30DA005A086C
:102FE800D4056408DA0003105A0CDB005B08D5002E
:082FF800E21F0800D5170800D4
:103E06007308720471047004031908008030F30605
:103E16000800F100F0013A3071020318182F303013
:103E26007102031C182FF001F00A700C0800F00054
:103E3600701C212F831203130616242F83120313DB
:103E46000612F01C282F8616292F8612701D2D2F7C
:103E560006172E2F0613F01D322F8617080086131D
:103E66000800F30083120313861073080A168A15D6
:103E76001A270A168A158312031306150630F2004E
:103E86003030F100F10B452FF20B452F0000831265
:103E9600031306110800F401F501701C582F72086F
:103EA600F4070318F50A7308F50701300310F20D3D
:103EB600F30DFF3E031D592F01300310F10CF00CDA
:103EC600FF3E031D602F70087104031D502F7508F7
:103ED600F1007408F0000800F800F401F50170081C
:103EE600F200F3017208F6007308F700781C812FC0
:103EF6007608F4070318F50A7708F507013003106A
:103F0600F60DF70DFF3E031D822F0310F80C7808FF
:103F1600031D792F7508F1007408F0000800700879
:103F260071040319BF2FF501F50AF11BA62F013005
:103F36000310F00DF10DFF3E031D9B2F0130F40021
:103F46007408F507982F71087302031DAC2F7008CB
:103F56007202031CB42F7008F2027108031CF303EB
:103F6600F30201300310F10CF00CFF3E031DB52FD8
:103F76000130F502031DA62F7308F1007208F00048
:103F86000800FB01FC01760877040319FB2FFD01ED
:103F9600FD0AF71BDA2F01300310F60DF70DFF3E71
:103FA600031DCF2F0130FA007A08FD07CC2F013010
:103FB6000310FB0DFC0DFF3E031DDB2F7708790276
:103FC600031DE72F76087802031CF02F7608F80207
:103FD6007708031CF903F9027B1401300310F70C70
:103FE600F60CFF3E031DF12F0130FD02031DDA2FF3
:0A3FF6007C08F7007B08F6000800C5
:02400E0076FF3B
:00000001FF
