:020000040000FA
:060000000A128A11FC2F18
:1000080083120313D1006E305102031C16293F30AE
:10001800A7000030A6000030A5000030A40064301E
:10002800F6000030F7005108C200C3014208F8008A
:100038004308F9000A168A15FA210A128A11760865
:1000480083120313C40001300310C40DFF3E031DC7
:1000580028280310440D7D3E84000A128A150A20C0
:100068000A128A11C5000A128A150A200A128A1170
:10007800C6000A128A150A200A128A11C7000A1233
:100088008A150A200A128A11C8004808AB004708D6
:10009800AA004608A9004508A8000A168A11A22144
:1000A8000A128A11831203132708D0002608CF00EA
:1000B8002508CE002408CD000A30F6000030F700ED
:1000C8005108C200C3014208F2004308F30064303B
:1000D800F0000030F1000A168A15C8210A128A11A8
:1000E8007108F9007008F8000A168A15FA210A1230
:1000F8008A11760883120313C40001300310C40D5B
:10010800FF3E031D82280310440D593E84000A1245
:100118008A150A200A128A11C5000A128A150A20AD
:100128000A128A11C6000A128A150A200A128A11AE
:10013800C7000A128A150A200A128A11C80048083C
:10014800A7004708A6004608A5004508A4005008CF
:10015800AB004F08AA004E08A9004D08A8000A16CF
:100168008A11A2210A128A11831203132708CC00CC
:100178002608CB002508CA002408C9000A30F00068
:100188000030F1005108C200C3014208F2004308E0
:10019800F3000A168A15C8210A128A1170088312F8
:1001A8000313C40001300310C40DFF3E031DD728FC
:1001B8000310440D353E84000A128A150A200A12DB
:1001C8008A11C5000A128A150A200A128A11C60065
:1001D8000A128A150A200A128A11C7000A128A15F9
:1001E8000A200A128A11C8004808A7004708A60072
:1001F8004608A5004508A4004C08AB004B08AA0017
:100208004A08A9004908A8000A168A11A2218312DF
:1002180003132708C1002608C0002508BF002408CA
:10022800BE0008000B305102031CC3293F30A70051
:100238000030A6000030A5000030A4000A30F60007
:100248000030F7005108C200C3014208F800430813
:10025800F9000A168A15FA210A128A1176088312F9
:100268000313C40001300310C40DFF3E031D3729DA
:100278000310440D593E84000A128A150A200A12F6
:100288008A11C5000A128A150A200A128A11C600A4
:100298000A128A150A200A128A11C7000A128A1538
:1002A8000A200A128A11C8004808AB004708AA00A9
:1002B8004608A9004508A8000A168A11A2210A12B0
:1002C8008A11831203132708D0002608CF002508B7
:1002D800CE002408CD000A30F0000030F1005108AB
:1002E800C200C3014208F2004308F3000A168A1547
:1002F800C8210A128A11700883120313C40001303E
:100308000310C40DFF3E031D84290310440D353E20
:1003180084000A128A150A200A128A11C5000A12D4
:100328008A150A200A128A11C6000A128A150A209A
:100338000A128A11C7000A128A150A200A128A119B
:10034800C8004808A7004708A6004608A5004508B1
:10035800A4005008AB004F08AA004E08A9004D0899
:10036800A8000A168A11A221831203132708C100C4
:100378002608C0002508BF002408BE0008003F303A
:10038800A7000030A6000030A5000030A4005108E6
:10039800C20001300310C20DFF3E031DCE29031019
:1003A800420D353E84000A128A150A200A128A1163
:1003B800C3000A128A150A200A128A11C4000A12F6
:1003C8008A150A200A128A11C5000A128A150A20FB
:1003D8000A128A11C6004608AB004508AA0044085C
:1003E800A9004308A8000A168A11A2218312031340
:1003F8002708C1002608C0002508BF002408BE0041
:10040800080083160313BD00A130A5002508AE001F
:100418000130A007FF30200784000A128A150A203D
:100428000A128A11A5002508C20042080319F72FED
:10043800253042060319222A4208EC2FAF01B001E9
:10044800200884000A128A150A200A128A112E3AF4
:10045800031D6F2A30170130A5002508A007BB012E
:10046800BC01200884000A128A150A200A128A117F
:100478000A168A15F7200A128A11031C752A831690
:1004880003133C08F1003B08F0000A30F20000308A
:10049800F3000A168A1539210A128A1183160313E2
:1004A800200884000A128A150A200A128A11700785
:1004B800A5000030031801307107A6002508D03EBA
:1004C800BB0026080318013EFF3EBC000130A50012
:1004D8002508A007352ABB01BC013016752A30153E
:1004E800912A013083160313A007FF3020078400E8
:1004F8000A128A150A200A128A11C200A500A6014A
:100508002608003A0319892A0C2A2508003A0319F3
:10051800F72F663A0319732A0C2A00302F05A50015
:1005280007303005A600250826040319B92F301E08
:10053800A12A0630BB000030BC002E0884008313BB
:100548000008BE00840A0008BF00840A0008C00032
:10055800840A0008C1000430A5002508AE07410838
:10056800F3004008F2003F08F1003E08F0000030B8
:10057800F7000030F6000030F5000030F4000A16ED
:100588008A1527250A128A110318E72A83160313E6
:100598004108F3004008F2003F08F1003E08F0006F
:1005A8000A128A15B9200A128A11730883160313CE
:1005B800C1007208C0007108BF007008BE00033097
:1005C800AF040030B00483160313B501B601410827
:1005D800F3004008F2003F08F1003E08F000003048
:1005E800F7000030F6000030F5000030F4000A167D
:1005F8008A1577220A128A110318EB2B0310831627
:100608000313400D410D823EB500FF300318003042
:10061800B600FF30B5070318B60AFF30B607033037
:10062800F0000030F1003608F3003508F2000A1631
:100638008A1539210A128A11710883160313B60024
:100648007008B5000A30F7000030F8003608FA00E4
:100658003508F9000A168A1501240A128A11780841
:1006680083160313B6007708B500B61F412BFF3079
:10067800B5070318B60AFF30B6073503FF3A0A165E
:100688008A11B7240A128A118312031341088316A8
:100698000313BA0083120313400883160313B90027
:1006A800831203133F0883160313B800831203133E
:1006B8003E0883160313B700410883120313A700EB
:1006C80083160313400883120313A600831603132B
:1006D8003F0883120313A500831603133E088312F1
:1006E8000313A400831603133A0883120313AB0001
:1006F80083160313390883120313AA0083160313FE
:10070800380883120313A9008316031337088312CA
:100718000313A8000A168A11A2210A128A11831249
:100728000313270883160313BA008312031326083A
:1007380083160313B90083120313250883160313C2
:10074800B80083120313240883160313B7003A086A
:10075800F3003908F2003808F1003708F0003F309C
:10076800F7008030F6000030F5000030F4000A167B
:100778008A1527250A128A110318CA2BFF308316F7
:100788000313B5070318B60AFF30EA2B83160313C1
:100798003A08F3003908F2003808F1003708F00089
:1007A8004130F7002030F6000030F5000030F4004A
:1007B8000A168A1527250A128A11031CEB2B013009
:1007C80083160313B5070318B60A0030B607831655
:1007D80003133C08803AFF0080307F02031DF62B8C
:1007E8000D303B0203183F2C831603133B080A12F3
:1007F8008A1104200A128A11831203134108D500B2
:100808004008D4003F08D3003E08D20083160313E3
:10081800410883120313D900831603134008831277
:100828000313D800831603133F0883120313D7005A
:10083800831603133E0883120313D6000A128A157F
:10084800C2200A128A118312031355088316031350
:10085800C10083120313540883160313C0008312C4
:100868000313530883160313BF008312031352089C
:1008780083160313BE00831603133608803AFF005D
:1008880080307F02031D4A2C0A3035020318972C4A
:10089800831603134108F3004008F2003F08F100F3
:1008A8003E08F0000030F7000030F6000030F50098
:1008B8000030F4000A168A1577220A128A110318E2
:1008C800002D83160313410883120313D4008316E3
:1008D8000313400883120313D300831603133F083E
:1008E80083120313D200831603133E0883120313E3
:1008F800D1000A168A15BA240A128A118312031320
:100908005408530452045104031D002D8316031385
:100918003608803AFF0080307F02031D952C023094
:100928003502031C002D831603133A08F300390817
:10093800F2003808F1003708F0004030F70089303D
:10094800F6007030F5005F30F4000A168A15272586
:100958000A128A110318B22CF730B32CF830831618
:100968000313B5070318B60AFF30B60735080A1689
:100978008A11B7240A128A118312031341088316B5
:100988000313BA0083120313400883160313B90034
:10099800831203133F0883160313B800831203134B
:1009A8003E0883160313B7004108F3004008F2001D
:1009B8003F08F1003E08F0003A08F7003908F60051
:1009C8003808F5003708F4000A168A11F8200A12C8
:1009D8008A11730883160313B4007208B3007108F0
:1009E800B2007008B1000030C1000030C000003013
:1009F800BF000030BE00842D831603134108831204
:100A08000313D40083160313400883120313D3007F
:100A1800831603133F0883120313D20083160313AC
:100A28003E0883120313D1000A168A15BA240A1243
:100A38008A1183120313540883160313B400831214
:100A48000313530883160313B300831203135208C6
:100A580083160313B200831203135108831603137A
:100A6800B1003408F3003308F2003208F10031080D
:100A7800F00000300A168A15BA250A128A1173087E
:100A880083120313E9007208E8007108E700700890
:100A9800E60083160313410883120313ED0083163F
:100AA8000313400883120313EC00831603133F0853
:100AB80083120313EB00831603133E0883120313F8
:100AC800EA000A168A155A210A128A118312031398
:100AD800690883160313C100831203136808831679
:100AE8000313C00083120313670883160313BF00A0
:100AF80083120313660883160313BE00B501B601FB
:100B0800C201C20A4208A50001300310A50DFF3E2C
:100B1800031D892D0310250D693E84000A128A15CC
:100B28000A200A128A11A6000A128A150A200A1235
:100B38008A11A7000A128A150A200A128A11A80027
:100B48000A128A150A200A128A11A90029083402F1
:100B5800031DB82D28083302031DB82D27083202BB
:100B6800031DB82D26083102031CC22D0130A50033
:100B78002508C2070A304206031D862D03302F05BB
:100B8800A50000303005A600250826040319D72D36
:100B98002D30A5003D08840025088313800001300E
:100BA800A5002508BD070130C202420A03194C2ED0
:100BB8004208A50001300310A50DFF3E031DDF2DDF
:100BC8000310250D693E84000A128A150A200A12AC
:100BD8008A11F0000A128A150A200A128A11F100F5
:100BE8000A128A150A200A128A11F2000A128A15B4
:100BF8000A200A128A11F3003408F7003308F600B5
:100C08003208F5003108F4000A168A155C240A1225
:100C18008A11730883160313BA007208B9007108A1
:100C2800B8007008B7000030F3000030F200003060
:100C3800F1000A30F0003A08F7003908F6003808E1
:100C4800F5003708F4000A168A1103200A128A11DF
:100C5800730883160313BA007208B9007108B80044
:100C68007008B7003708303ECD2D30308316031397
:100C7800A5003D0884002508831380000130A500E5
:100C88002508BD07FF30B5070318B60AFF30B607B9
:100C98003608803AFF0080307F02031D552E013050
:100CA80035020318392E831603133C08803AFF00D7
:100CB80080307F02031D622E09303B02031C682E20
:100CC8000830831603136B2E831603133B08A50005
:100CD8002508C2004208A500A6012508BB0226086F
:100CE800031CBC03BC0242080319852E2E30A50044
:100CF8003D0884002508831380000130A5002508DD
:100D0800BD0742080A168A11B7240A128A118312EB
:100D18000313410883160313AD008312031340081D
:100D280083160313AC00831203133F0883160313BF
:100D3800AB00831203133E0883160313AA002D0881
:100D480083120313AB00831603132C0883120313B7
:100D5800AA00831603132B0883120313A900831612
:100D680003132A0883120313A800831603134108E8
:100D780083120313A7008316031340088312031377
:100D8800A600831603133F0883120313A5008316D6
:100D980003133E0883120313A4000A168A11A22122
:100DA8000A128A11831203132708D4002608D300D5
:100DB8002508D2002408D1000A168A15BA240A1276
:100DC8008A1183120313540883160313B400831281
:100DD8000313530883160313B30083120313520833
:100DE80083160313B20083120313510883160313E7
:100DF800B1000130C202420A0319B42F4208A5000B
:100E080001300310A50DFF3E031D052F0310250D0E
:100E1800693E84000A128A150A200A128A11F00013
:100E28000A128A150A200A128A11F1000A128A1572
:100E38000A200A128A11F2000A128A150A200A12D6
:100E48008A11F3003408F7003308F6003208F50079
:100E58003108F4000A168A155C240A128A117308EC
:100E680083160313BA007208B9007108B800700835
:100E7800B7000030F3000030F2000030F1000A3013
:100E8800F0003A08F7003908F6003808F500370886
:100E9800F4000A168A1103200A128A1173088316AD
:100EA8000313BA007208B9007108B8007008B700D7
:100EB8003708303EA5003D088400250883138000CC
:100EC8000130A5002508BD074208A5000130031020
:100ED800A50DFF3E031D6B2F0310250D693E8400F1
:100EE8000A128A150A200A128A11F0000A128A15B3
:100EF8000A200A128A11F1000A128A150A200A1217
:100F08008A11F2000A128A150A200A128A11F300BD
:100F18003408F7003308F6003208F5003108F40009
:100F28000A168A1103200A128A11730883160313FA
:100F3800B4007208B3007108B2007008FC2E30309B
:100F4800A5003D0884002508831380000130A50012
:100F58002508BD07FF30BB070318BC0AFF30BC07D4
:100F68003B083C0403190C2AA32F3B083C04031D2F
:100F7800C92F3408330432043104031DC92F01304A
:100F8800BB070318BC0A0030BC073C08803A803C09
:100F9800031DD02F3B084202031CDF2F83160313C7
:100FA8003C08803AA50080302502031DDD2F420849
:100FB8003B02031CDF2F0330831603132F05A50004
:100FC80000303005A6002508260403190C2A2D3008
:100FD800A5003D0884002508831380000130A50082
:100FE8002508BD070C2A3D088400831380010800EA
:100FF80083010A128A15F12AFF1B0A2883137F1816
:1010080083170008840A0319FF0A080008308A00B9
:101018000408840A820700340034003480343F34E2
:10102800003400342034413400340034C8344234AD
:10103800003400347A344434003440341C344634A8
:1010480000345034C33447340034243474344934BD
:101058008034963418344B342034BC34BE344C3489
:1010680028346B346E344E34F93402341534503429
:10107800EC347834AD346034CA34F23449347134E1
:101088000034003480343F34CD34CC34CC343D3457
:101098000A34D73423343C346F34123483343A342A
:1010A8001734B734D1343834AC34C53427343734F2
:1010B800BD343734863435349534BF34D63433347C
:1010C8007734CC342B3432345F3470348934303450
:1010D800FF34E634DB342E340834E5343C341E3433
:1010E80060344234A2340D34013400340034003406
:1010F8000A340034003400346434003400340034DA
:10110800E834033400340034103427340034003415
:10111800A034863401340034403442340F3400346F
:1011280080349634983400340034E134F53405348E
:101138000034CA349A343B344334753472347234CC
:1011480020344C3469346D346934743400342534B3
:101158002E3431346634003425342E343234663437
:101168000034413400345634003473087204710476
:101178007004031908008030F30608008312031373
:1011880055088039DA005A08E2005508DA005A078B
:10119800DB005B08E400D41B641464080319E2282C
:1011A800640A031DDF280030D5000030D400003069
:1011B800D3000030D200D417D501EA280030D5007A
:1011C8000030D4000030D3000030D20059088039F4
:1011D800DA005A08E30063086206031D621759081B
:1011E800DA005A07DB005B08E300D81B63146308C6
:1011F80003190C29630A031D09290030D90000309E
:10120800D8000030D7000030D600D817D9011429EB
:101218000030D9000030D8000030D7000030D600A8
:101228006408630203185A29621F1E298030DA00F5
:101238005A08E2066408DA005A08E5006308DA008A
:101248005A08E4006508DA005A08E3005208DA0090
:101258005A08E5005608DA005A08D2006508DA008C
:101268005A08D6005308DA005A08E5005708DA0089
:101278005A08D3006508DA005A08D7005408DA007B
:101288005A08E5005808DA005A08D4006508DA0058
:101298005A08D8005508DA005A08E5005908DA0053
:1012A8005A08D5006508DA005A08D900E50163082C
:1012B800DA00DB015B08DD0064085A02DC00031C6D
:1012C800DD035D08803AFF0080307F02031D6E2930
:1012D8001A305C02031CA72983120313550854040F
:1012E8005304520403197A2901307B290030DA00AB
:1012F8005A08E5000030D5000030D4000030D30093
:101308000030D2006308DA005A08E400AD29651CF1
:1013180096296508DA0003105A0C0138DB005B08CF
:10132800E50098290310E50C5218E5170130DA009A
:10133800550DD50CD40CD30CD20CDA0B9C290130EA
:10134800DA005A08E4078312031363086402031CD3
:101358008B29621BEE296408031DBB290030D500C8
:101368000030D4000030D3000030D2000800560806
:10137800D207570803110318013E031DD307580865
:1013880003110318013E031DD4075908031103185C
:10139800013E031DD507551C902A651CDC296508EC
:1013A800DA0003105A0C0138DB005B08E500DE297F
:1013B8000310E50C5218E5170130DA00550DD50C6D
:1013C800D40CD30CD20CDA0BE2290130DA005A081B
:1013D800E407902A5508803AFF005908803A7F02AE
:1013E800031D002A58085402031D002A57085302F7
:1013F800031D002A560852020318582AFF30DA0043
:10140800FF30DB00FF30DC00FF30DD005608DE0077
:101418005708DF005808E0005908E1005208DE02CA
:101428005308031C530F192A1A2ADF025408031CF5
:10143800540F1F2A202AE0025508031C550F252A9D
:10144800262AE1025E08DA075F0803185F0F2D2AD3
:101458002E2ADB0760080318600F332A342ADC07BA
:1014680061080318610ADD075D08D5005C08D4002F
:101478005B08D3005A08D2008030DA005A08E20626
:10148800E509E50A6508031D662A0130D207003020
:1014980003180130D307003003180130D407003097
:1014A80003180130D507662A5608D2025708031CCC
:1014B800570FD3025808031C580FD4025908031CAD
:1014C800590FD5025508540453045204031D8E2A9B
:1014D8006508031D8E2A0030D5000030D400003086
:1014E800D3000030D20008000130DA000310D20D1A
:1014F800D30DD40DD50DDA0B7A2AE51B5214651CD1
:10150800872A0314882A0310E50D640803198E2A14
:101518000130E402D41F782AE301E51F9B2A6508FD
:101528007F3903195218992A9B2AE301E30A6308B1
:101538000319CE2A0130D207003003180130D3072F
:10154800003003180130D407003003180130D507E4
:10155800551CCE2A5208DA005308DB005408DC0078
:101568005508DD000130DE005D0DDD0CDC0CDB0C08
:10157800DA0CDE0BB82A5D08D5005C08D4005B08DD
:10158800D3005A08D200640A0319CE2A0130DA00BF
:101598005A08E407640A031D6408031DDE2A0030A4
:1015A800D5000030D4000030D3000030D2006408E9
:1015B8000319E201641CE22AD417E62A7F30DA0014
:1015C8005A08D4056408DA0003105A0CDB005B08DB
:1015D800D500E21F0800D5170800831603138601FB
:1015E8000A168A1554230A128A150A168A15EC2037
:1015F8000A128A150A168A15E3200A128A15063075
:1016080083120313EE006E08F40001300A168A15DF
:10161800BF220A128A15A830F9008030FA000A168B
:101628008A1536220A128A15103083120313EE0027
:101638006E08F40001300A168A15BF220A128A15AC
:10164800A630F9008030FA000A168A1536220A12E6
:101658008A15F401F40A02300A168A15BF220A1202
:101668008A159130F9008030FA000A168A15362258
:101678000A128A15103083120313EE006E08F40064
:1016880002300A168A15BF220A128A15A630F900F6
:101698008030FA000A168A1536220A128A15003096
:1016A8000A168A159F210A128A15710883160313D0
:1016B800E8007008E7004230A300C830A2000030FC
:1016C800A1000030A0003E3083120313A700F930B8
:1016D800A600FF30A500F830A4008316031367089E
:1016E800F0006808F1000030F11BFF30F200F30051
:1016F80001300A168A15BA250A128A157308831248
:101708000313AB007208AA007108A9007008A800AA
:101718000A168A11A2210A128A15831203132708AE
:1017280083160313A70083120313260883160313D3
:10173800A60083120313250883160313A50083123A
:101748000313240883160313A4000A168A155D26BA
:101758000A128A15831603132308DE002208DD0007
:101768002108DC002008DB003E30A3004C30A2003A
:10177800CC30A100CD30A0005E08A7005D08A6000F
:101788005C08A5005B08A4000A168A155D260A12E3
:101798008A15831603132308E2002208E1002108B2
:1017A800E0002008DF00A13083120313EE006E086A
:1017B80083160313A0006208A4006108A300600850
:1017C800A2005F08A100D3300A128A1105220A126A
:1017D8008A15F401F40A01300A168A15BF220A1282
:1017E8008A15D330F9000030FA000A168A15362215
:1017F8000A128A15831603136208CA006108C90011
:101808006008C8005F08C70001300A168A159F21C2
:101818000A128A15710883160313E8007008E70096
:101828004230A300C830A2000030A1000030A00060
:101838003E3083120313A700F930A600FF30A5003D
:10184800F830A400831603136708F0006808F10055
:101858000030F11BFF30F200F30001300A168A1540
:10186800BA250A128A15730883120313AB0072088B
:10187800AA007108A9007008A8000A168A11A221F6
:101888000A128A1583120313270883160313A70065
:1018980083120313260883160313A6008312031367
:1018A800250883160313A50083120313240883163F
:1018B8000313A4000A168A155D260A128A158316D0
:1018C80003132308E6002208E5002108E4002008A5
:1018D800E300A13083120313EE006E08831603138E
:1018E800A0006608A4006508A3006408A2006308B5
:1018F800A100D3300A128A1105220A128A150B3068
:1019080083120313EE006E08F40001300A168A15DC
:10191800BF220A128A15D330F9000030FA000A16DD
:101928008A1536220A128A15831603136608CE0012
:101938006508CD006408CC006308CB0002300A16A5
:101948008A159F210A128A15710883160313E80065
:101958007008E7004230A300C830A2000030A100A0
:101968000030A0003E3083120313A700F930A60010
:10197800FF30A500F830A400831603136708F000B1
:101988006808F1000030F11BFF30F200F30001306D
:101998000A168A15BA250A128A15730883120313C0
:1019A800AB007208AA007108A9007008A8000A16FE
:1019B8008A11A2210A128A15831203132708831693
:1019C8000313A70083120313260883160313A60024
:1019D80083120313250883160313A5008312031328
:1019E800240883160313A4000A168A155D260A1212
:1019F8008A15831603132308EC002208EB0021083C
:101A0800EA002008E9009C3083120313EE006E08F8
:101A180083160313A0006C08A4006B08A3006A08CF
:101A2800A2006908A100D3300A128A1105220A12FD
:101A38008A150C3083120313EE006E08F40002308E
:101A48000A168A15BF220A128A15D330F900003007
:101A5800FA000A168A1536220A128A158316031303
:101A68006C08D2006B08D1006A08D0006908CF0062
:101A780000300A168A159F210A128A1571088316E2
:101A88000313E8007008E7004230A300C830A20042
:101A98000030A1000030A0003E3083120313A700DD
:101AA800F930A600FF30A500F830A4008316031310
:101AB8006708F0006808F1000030F11BFF30F20001
:101AC800F30001300A168A15BA250A128A15730816
:101AD80083120313AB007208AA007108A9007008EA
:101AE800A8000A168A11A2210A128A158312031362
:101AF800270883160313A7008312031326088316E7
:101B08000313A60083120313250883160313A500E5
:101B180083120313240883160313A4000A168A15D4
:101B28005D260A128A15831603132308DE0022088D
:101B3800DD002108DC002008DB003E30A3004C302B
:101B4800A200CC30A100CD30A0005E08A7005D083F
:101B5800A6005C08A5005B08A4000A168A155D2685
:101B68000A128A15831603132308E2002208E100EB
:101B78002108E0002008DF006208F3006108F20095
:101B88006008F1005F08F0004A08F7004908F6000D
:101B98004808F5004708F4000A168A1577220A1241
:101BA8008A150318082EA13083120313EE006E085D
:101BB80083160313A0006208A4006108A30060084C
:101BC800A2005F08A100D3300A128A1105220A1266
:101BD8008A15F401F40A01300A168A15BF220A127E
:101BE8008A15D330F9000030FA000A168A15362211
:101BF8000A128A15831603136208CA006108C9000D
:101C08006008C8005F08C70001300A168A159F21BE
:101C18000A128A15710883160313E8007008E70092
:101C28004230A300C830A2000030A1000030A0005C
:101C38003E3083120313A700F930A600FF30A50039
:101C4800F830A400831603136708F0006808F10051
:101C58000030F11BFF30F200F30001300A168A153C
:101C6800BA250A128A15730883120313AB00720887
:101C7800AA007108A9007008A8000A168A11A221F2
:101C88000A128A1583120313270883160313A70061
:101C980083120313260883160313A6008312031363
:101CA800250883160313A50083120313240883163B
:101CB8000313A4000A168A155D260A128A158316CC
:101CC80003132308E6002208E5002108E4002008A1
:101CD800E3006608F3006508F2006408F100630891
:101CE800F0004E08F7004D08F6004C08F5004B08C8
:101CF800F4000A168A1577220A128A150318B92ED3
:101D0800A13083120313EE006E0883160313A0009C
:101D18006608A4006508A3006408A2006308A1007F
:101D2800D3300A128A1105220A128A150B3083123F
:101D38000313EE006E08F40001300A168A15BF225C
:101D48000A128A15D330F9000030FA000A168A15EB
:101D580036220A128A15831603136608CE00650810
:101D6800CD006408CC006308CB0002300A168A153F
:101D78009F210A128A15710883160313E800700858
:101D8800E7004230A300C830A2000030A1000030B4
:101D9800A0003E3083120313A700F930A600FF30DD
:101DA800A500F830A400831603136708F00068083C
:101DB800F1000030F11BFF30F200F30001300A1689
:101DC8008A15BA250A128A15730883120313AB0001
:101DD8007208AA007108A9007008A8000A168A11DA
:101DE800A2210A128A1583120313270883160313E4
:101DF800A70083120313260883160313A600831271
:101E08000313250883160313A5008312031324085C
:101E180083160313A4000A168A155D260A128A156A
:101E2800831603132308EC002208EB002108EA00BC
:101E38002008E9006C0883120313E90083160313D2
:101E48006B0883120313E800831603136A088312CE
:101E58000313E70083160313690883120313E600CC
:101E68004030ED00A030EC000030EB000030EA001C
:101E78000A168A155A210A128A1583120313690849
:101E880083160313A300831203136808831603132E
:101E9800A20083120313670883160313A100831299
:101EA8000313660883160313A00046308312031336
:101EB800A7001C30A6004030A5000030A4008316FF
:101EC80003136C0883120313AB00831603136B0808
:101ED80083120313AA00831603136A0883120313D9
:101EE800A90083160313690883120313A8000A16AE
:101EF8008A11A2210A128A1583120313270883164E
:101F08000313A70083120313260883160313A600DE
:101F180083120313250883160313A50083120313E2
:101F2800240883160313A4000A168A155D260A12CC
:101F38008A15831603132308C6002208C500210842
:101F4800C4002008C3004608A3004508A2004408AE
:101F5800A1004308A0004430A7004830A600003084
:101F6800A5000030A4000A168A155D260A128A15F3
:101F7800831603132308EC002208EB002108EA006B
:101F88002008E9006C08F3006B08F2006A08F10009
:101F98006908F0005208F7005108F6005008F500EB
:101FA8004F08F4000A168A1577220A128A150318B0
:101FB8003C2D831603136C08F3006B08F2006A08C3
:101FC800F1006908F0004030F7002030F6000030DA
:101FD800F5000030F4000A168A1527250A128A151A
:101FE800031C072D403083160313EC002030EB0050
:081FF8000030EA000030062D64
:10200600730872047104700403194628F901F90A69
:10201600F31B1B280130F8000310F00DF10DF20D33
:10202600F30DF80B0F280130F8007808F9070B2894
:1020360073087702031D292872087602031D2928D2
:1020460071087502031D292870087402031C3928BB
:102056007008F4027108031C710FF5027208031C64
:10206600720FF6027308031C730FF7020130031098
:10207600F30CF20CF10CF00CFF3E031D3A28013074
:10208600F902031D1B287708F3007608F20075088D
:10209600F1007408F00008007008F8007108F900F3
:1020A6007208FA000310790D7A0DFB007B08831283
:1020B6000313A5002508031D69280030F30000302E
:1020C600F2000030F1000030F00008007408F8005B
:1020D6007508F9007608FA000310790D7A0DFB00F1
:1020E6007B08A400240803196028F117FF30F005C7
:1020F600FF30F1050030F205F517FF30F405FF302B
:10210600F5050030F6050030A3000030A2000030CF
:10211600A1000030A0007F30A50298302407F80007
:102126007808A5021830F8007808A4000130F800F5
:102136000310A00DA10DA20DA30DF80B9B28760888
:102146007202031DAC2875087102031DAC287408C1
:102156007002031CB9287408F0027508031C750F79
:10216600F1027608031C760AF202201401300310ED
:10217600F00DF10DF20DFF3E031DBA280130A40249
:10218600031D9928A51FDC282508803A973E031CC5
:10219600602801300310A30CA20CA10CA00CFF3E7A
:1021A600031DCD280130F8007808A5070319EF288C
:1021B600CC28183025020318602825080319EF28B3
:1021C6000130F8000310A00DA10DA20DA30DF80B10
:1021D600E5280130A502E0282308F3002208F200D2
:1021E6002108F1002008F00008000310720D730D9D
:1021F600F800780883120313A5002508031D0C298F
:102206000030F3000030F2000030F1000030F00042
:1022160008000310760D770DF8007808A40024084E
:1022260003190329F217FF30F005FF30F105FF30DF
:10223600F2050030F305F617FF30F405FF30F5051B
:10224600FF30F6050030F7050030A3000030A2008D
:102256000030A1000030A0007F30A502A030240786
:10226600F8007808A5022030F8007808A4000130AC
:10227600F8000310A00DA10DA20DA30DF80B3C292B
:1022860077087302031D512976087202031D51292E
:1022960075087102031D512974087002031C622916
:1022A6007408F0027508031C750FF1027608031C0A
:1022B600760FF2027708031C770FF3022014013021
:1022C600F8000310F00DF10DF20DF30DF80B642973
:1022D6000130A402031D3A29A51F86292508803A44
:1022E6009F3E031C032901300310A30CA20CA10C72
:1022F600A00CFF3E031D77290130F8007808A507DA
:10230600031999297629203025020318032925085F
:10231600031999290130F8000310A00DA10DA20D93
:10232600A30DF80B8F290130A5028A292308F30093
:102336002208F2002108F1002008F00008008312AC
:10234600031327088039AC002C08B1002708AC001D
:102356002C07AD002D08B700A61B37143708031944
:10236600C129370A031DBF290030A7000030A60087
:102376000030A5000030A400A617C9290030A70028
:102386000030A6000030A5000030A4002B088039DC
:10239600AC002C08B1062B08AC002C07AD002D08AC
:1023A600B600AA1B361436080319E629360A031D99
:1023B600E4290030AB000030AA000030A90000304C
:1023C600A800AA17EE290030AB000030AA000030A2
:1023D600A9000030A8003608031D3708031DFC2994
:1023E6000030A7000030A6000030A5000030A40091
:1023F60008002408AC002C08F0002A080A168A15E2
:102406007C210A168A11710883120313BD00700815
:10241600BC003C08AC00AD01AE01AF012F08B50011
:102426002E08B4002D08B3002C08B2003D08AC00FD
:10243600AD01AE01AF012F08BB002E08BA002D0872
:10244600B9002C08B8002508AC002C08F0002908B3
:102456000A168A157C210A168A117108831203133B
:10246600BD007008BC003C08AC00AD01AE01AF0178
:102476002C08B2072D0803110318013E031DB307EC
:102486002E0803110318013E031DB4072F0803117C
:102496000318013E031DB5073D08AC00AD01AE01B2
:1024A600AF012C08B8072D0803110318013E031DC0
:1024B600B9072E0803110318013E031DBA072F089A
:1024C60003110318013E031DBB072608AC002C08A8
:1024D600F00028080A168A157C210A168A11710846
:1024E60083120313BD007008BC003C08AC00AD01AC
:1024F600AE01AF012C08B2072D0803110318013EE7
:10250600031DB3072E0803110318013E031DB4076C
:102516002F0803110318013E031DB5073D08AC0043
:10252600AD01AE01AF012C08B8072D080311031841
:10253600013E031DB9072E0803110318013E031DB2
:10254600BA072F0803110318013E031DBB07083005
:10255600AC000310B20DB30DB40DB50DAC0BAC2A27
:102566002508AC002C08F00028080A168A157C21DC
:102576000A168A11710883120313BD007008BC0085
:102586003C08AC003D08AD00AE01AF012C08B20717
:102596002D0803110318013E031DB3072E0803116E
:1025A6000318013E031DB4072F0803110318013E4B
:1025B600031DB5072408AC002C08F00029080A16EC
:1025C6008A157C210A168A11710883120313BD002D
:1025D6007008BC003C08AC003D08AD00AE01AF0180
:1025E6002C08B2072D0803110318013E031DB3077B
:1025F6002E0803110318013E031DB4072F0803110B
:102606000318013E031DB5070830AC000310B20DD8
:10261600B30DB40DB50DAC0B092B2408AC002C087A
:10262600F00028080A168A157C210A168A117108F4
:1026360083120313BD007008BC003C08AC003D08C3
:10264600AD00AE01AF012C08B2072D080311031827
:10265600013E031DB3072E0803110318013E031D97
:10266600B4072F0803110318013E031DB5072508FB
:10267600AC002C08F0002A080A168A157C210A16D6
:102686008A11710883120313BD007008BC003C0850
:10269600AC003D08AD00AE01AF012C08B8072D080F
:1026A60003110318013E031DB9072E080311031871
:1026B600013E031DBA072F0803110318013E031D2F
:1026C600BB072608AC002C08F00029080A168A1554
:1026D6007C210A168A11710883120313BD00700843
:1026E600BC003C08AC003D08AD00AE01AF012C08B3
:1026F600B8072D0803110318013E031DB9072E085C
:1027060003110318013E031DBA072F08031103180E
:10271600013E031DBB072608AC002C08F0002A0862
:102726000A168A157C210A168A1171088312031368
:10273600BD007008BC003C08AC003D08AD00AE0111
:10274600AF0108300310AC0DAD0DAE0DAF0DFF3E61
:10275600031DA52B2C08B8072D0803110318013EED
:10276600031DB9072E0803110318013E031DBA07FE
:102776002F0803110318013E031DBB073208AC00E6
:102786003308AD003408AE003508AF00183003102A
:10279600AF0CAE0CAD0CAC0CFF3E031DCA2B2C08C7
:1027A600B8072D0803110318013E031DB9072E08AB
:1027B60003110318013E031DBA072F08031103185E
:1027C600013E031DBB070830AC000310B20DB30D6C
:1027D600B40DB50DAC0BE82B37083607AC00AD01D0
:1027E600AD0D2C08823EBC002D080318013EFF3EAD
:1027F600BD00BA1B192C0130AC000310B80DB90D81
:10280600BA0DBB0DAC0B002CB51B38140130AC0057
:102816000310B20DB30DB40DB50DAC0B0B2CFF3080
:10282600BC070318BD0AFF30BD07FC2BB601B51F58
:10283600322CFF303205AC00FF303305AD00FF30DF
:102846003405AE007F303505AF002F082E042D0469
:102856002C0403193818302C322CB601B60A360867
:102866000319642C0130B807003003180130B9078A
:10287600003003180130BA07003003180130BB07D7
:102886003B1C642C3808AC003908AD003A08AE0091
:102896003B08AF000130B0002F0DAF0CAE0CAD0CF5
:1028A600AC0CB00B4F2C2F08BB002E08BA002D081D
:1028B600B9002C08B8000130BC070318BD0A003067
:1028C600BD073D08803AFF0080307F02031D6D2C56
:1028D600FF303C02031C7A2C7F3083120313BB00AB
:1028E6008030BA000030B9000030B800AA2C83123C
:1028F60003133D08803AFF0080307F02031D852CBC
:1029060001303C020318932C003083120313BB00E2
:102916000030BA000030B9000030B800B101AA2C6E
:10292600831203133C08AC002C08B700FF30B8052F
:10293600FF30B9057F30BA050030BB053718BA1726
:102946003708AC0003102C0CAD002D08BB00310875
:10295600AC002C08BB043B08A7003A08A6003908BF
:10296600A5003808A400080083120313D000D01F66
:102976005F2ED009D00A5008803A123E031CA92DBA
:102986000A30F7000030F8005008F200F301F21B9D
:10299600F3036430F0000030F1000A168A150923AB
:1029A6000A168A117108FA007008F9000A168A15C3
:1029B60001240A168A11770883120313C200013014
:1029C6000310C20DFF3E031DE32C0310420D593EBA
:1029D60084000A128A150A200A168A11C3000A12EE
:1029E6008A150A200A168A11C4000A128A150A20B4
:1029F6000A168A11C5000A128A150A200A168A11B1
:102A0600C6004608A7004508A6004408A5004308D6
:102A1600A4006430F7000030F8005008F900FA010D
:102A2600F91BFA030A168A1501240A168A11770871
:102A360083120313C70001300310C70DFF3E031DA9
:102A46001F2D0310470D7D3E84000A128A150A20A9
:102A56000A168A11C8000A128A150A200A168A114D
:102A6600C9000A128A150A200A168A11CA000A1211
:102A76008A150A200A168A11CB004B08AB004A08B1
:102A8600AA004908A9004808A8000A168A11A22126
:102A96000A168A11831203132708CF002608CE00D0
:102AA6002508CD002408CC000A30F0000030F100E3
:102AB6005008F200F301F21BF3030A168A150923E4
:102AC6000A168A11700883120313C200013003101C
:102AD600C20DFF3E031D6A2D0310420D353E8400D4
:102AE6000A128A150A200A168A11C3000A128A15C2
:102AF6000A200A168A11C4000A128A150A200A1622
:102B06008A11C5000A128A150A200A168A11C600F9
:102B16004608A7004508A6004408A5004308A400E7
:102B26004F08AB004E08AA004D08A9004C08A800A3
:102B36000A168A11A221831203132708C100260848
:102B4600C0002508BF002408BE0008005008803ACF
:102B5600753E031C342E0A30F0000030F100500898
:102B6600F200F301F21BF3030A168A1509230A166B
:102B76008A11700883120313C20001300310C20DBC
:102B8600FF3E031DC12D0310420D353E84000A127F
:102B96008A150A200A168A11C3000A128A150A2003
:102BA6000A168A11C4000A128A150A200A168A1100
:102BB600C5000A128A150A200A168A11C600460896
:102BC600A7004508A6004408A5004308A4000A304B
:102BD600F7000030F8005008F900FA01F91BFA0373
:102BE6000A168A1501240A168A1177088312031316
:102BF600C70001300310C70DFF3E031DFD2D031056
:102C0600470D593E84000A128A150A200A168A11AF
:102C1600C8000A128A150A200A168A11C9000A1261
:102C26008A150A200A168A11CA000A128A150A206B
:102C36000A168A11CB004B08AB004A08AA004908BD
:102C4600A9004808A8000A168A11A22183120313B4
:102C56002708C1002608C0002508BF002408BE00BA
:102C660008005008C20001300310C20DFF3E031DCC
:102C7600372E0310420D353E84000A128A150A20AB
:102C86000A168A11C3000A128A150A200A168A1120
:102C9600C4000A128A150A200A168A11C5000A12E9
:102CA6008A150A20C6004608C1004508C000440827
:102CB600BF004308BE0008005008803A123E031CBD
:102CC6004A2F0A30F7000030F8005008F200F301EE
:102CD600F21BF3036430F0000030F1000A168A1587
:102CE60009230A168A117108FA007008F9000A16F3
:102CF6008A1501240A168A11770883120313C20063
:102D060001300310C20DFF3E031D842E0310420D39
:102D1600253E84000A128A150A200A168A11C30063
:102D26000A128A150A200A168A11C4000A128A157E
:102D36000A200A168A11C5000A128A150A200A16DE
:102D46008A11C6004608A7004508A6004408A50043
:102D56004308A4006430F7000030F8005008F9007A
:102D6600FA01F91BFA030A168A1501240A168A11B2
:102D7600770883120313C70001300310C70DFF3E07
:102D8600031DC02E0310470D493E84000A128A1502
:102D96000A200A168A11C8000A128A150A200A167B
:102DA6008A11C9000A128A150A200A168A11CA004F
:102DB6000A128A150A200A168A11CB004B08AB00A4
:102DC6004A08AA004908A9004808A8000A168A1154
:102DD600A2210A168A11831203132708CF00260898
:102DE600CE002508CD002408CC000A30F0000030C3
:102DF600F1005008F200F301F21BF3030A168A15DC
:102E060009230A168A11700883120313C2000130BF
:102E16000310C20DFF3E031D0B2F0310420D013E92
:102E260084000A128A150A200A168A11C3000A1299
:102E36008A150A200A168A11C4000A128A150A205F
:102E46000A168A11C5000A128A150A200A168A115C
:102E5600C6004608A7004508A6004408A500430882
:102E6600A4004F08AB004E08AA004D08A9004C0864
:102E7600A8000A168A11A221831203132708C1008B
:102E86002608C0002508BF002408BE000800500818
:102E9600803A753E031CD52F0A30F0000030F10051
:102EA6005008F200F301F21BF3030A168A150923F0
:102EB6000A168A11700883120313C2000130031028
:102EC600C20DFF3E031D622F0310420D013E84001A
:102ED6000A128A150A200A168A11C3000A128A15CE
:102EE6000A200A168A11C4000A128A150A200A162E
:102EF6008A11C5000A128A150A200A168A11C60006
:102F06004608A7004508A6004408A5004308A400F3
:102F16000A30F7000030F8005008F900FA01F91BF2
:102F2600FA030A168A1501240A168A1177088312EB
:102F36000313C70001300310C70DFF3E031D9E2F6C
:102F46000310470D253E84000A128A150A200A1628
:102F56008A11C8000A128A150A200A168A11C9009F
:102F66000A128A150A200A168A11CA000A128A1536
:102F76000A200A168A11CB004B08AB004A08AA00A1
:102F86004908A9004808A8000A168A11A221831236
:102F960003132708C1002608C0002508BF0024081F
:102FA600BE0008005008C20001300310C20DFF3EEB
:102FB600031DD82F0310420D013E84000A128A1504
:102FC6000A200A168A11C3000A128A150A200A164E
:102FD6008A11C4000A128A150A200A168A11C50027
:102FE6000A128A150A20C6004608C1004508C00014
:0A2FF6004408BF004308BE000800B5
:1031C6004130831203139F00C030831603139F0000
:1031D600080000300A168A151F210A168A150130C2
:1031E6000A168A151F210800F100F0013A30710213
:1031F6000318032930307102031C0329F001F00A79
:10320600700C0800F000701C0C29831203130616BC
:103216000F29831203130612F01C1329861614298C
:103226008612701D1829061719290613F01D1D2967
:103236008617080086130800F3008312031386100E
:1032460073080A168A1505210A168A1583120313AE
:1032560006150630F2003030F100F10B3029F20B82
:10326600302900008312031306110800F401F5014A
:10327600701C43297208F4070318F50A7308F5074A
:1032860001300310F20DF30DFF3E031D44290130FA
:103296000310F10CF00CFF3E031D4B29700871045E
:1032A600031D3B297508F1007408F0000800803002
:1032B60083120313E9066D08D5006C08D4006B0869
:1032C600D3006A08D2006908D9006808D8006708E0
:1032D600D7006608D6000A128A15C2208312031385
:1032E6005508E9005408E8005308E7005208E600CC
:1032F6000800F800F401F5017008F200F301720805
:10330600F6007308F700781C8E297608F407031870
:10331600F50A7708F50701300310F60DF70DFF3EA5
:10332600031D8F290310F80C7808031D86297508DC
:10333600F1007408F0000800F4000130F200720891
:10334600831203139F057408F20002300310F20D76
:10335600FF3E031DA9290310720DF30073089F0495
:103366000330F3009730F200F20BB729F30BB729BD
:10337600BC29831203131F151F19BF291E08F1004C
:10338600831603131E08F000080070087104031961
:10339600F529F501F50AF11BDC2901300310F00DC2
:1033A600F10DFF3E031DD1290130F4007408F50725
:1033B600CE2971087302031DE22970087202031CEC
:1033C600EA297008F2027108031CF303F3020130C4
:1033D6000310F10CF00CFF3E031DEB290130F50242
:1033E600031DDC297308F1007208F0000800FB01D8
:1033F600FC01760877040319312AFD01FD0AF71B43
:10340600102A01300310F60DF70DFF3E031D052AA5
:103416000130FA007A08FD07022A01300310FB0D7D
:10342600FC0DFF3E031D112A77087902031D1D2A94
:1034360076087802031C262A7608F8027708031C09
:10344600F903F9027B1401300310F70CF60CFF3E6A
:10345600031D272A0130FD02031D102A7C08F700F0
:103466007B08F600080083120313A001A1012008BF
:103476007907FC007A08FB000318FB0AA01BFB0374
:103486007B08FD007D0883120313FF007C0884007F
:103496000A128A1500200A168A15003A031908002E
:1034A60020087907FC007A08FB000318FB0AA01B1A
:1034B600FB037B08FD007D0883120313FF007C08D5
:1034C60084000A128A1500200A168A150A168A1519
:1034D600A6230A168A15013083120313A0070318C0
:1034E600A10A0030A1073A2A00307005F800003022
:1034F6007105F90080307205FA007F307305FB0014
:103506007B087A0479047804031D912A0030F300BD
:103516000030F2000030F1000030F0000030740599
:10352600F80000307505F90080307605FA007F3026
:103536007705FB007B087A0479047804031DAB2A1F
:103546000030F7000030F6000030F5000030F400DF
:1035560077087306031DB92A76087206031DB92A71
:1035660075087106031DB92A740870060319BD2A69
:103576000310080003140800F7007703031DE42A6C
:1035860074087F3EF5007508FA007A08F5000430E5
:103596000310F50CFF3E031DCB2A7508F6007608CE
:1035A600F8007A080F39F5007508F90078080A1648
:1035B6008A151F210A168A1579080A168A151F21E7
:1035C600080002307706031D08007408BF3EF500A8
:1035D6007508FA007A08F50004300310F50CFF3E72
:1035E600031DF02A7508F6007608F8007A080F39E8
:1035F600F5007508F90078080A168A151F210A16BB
:103606008A1579080A168A151F210800F601F31F84
:10361600132BF209F309F20A0319F30AF601F60A63
:10362600F11F1A2BF009F109F00A0319F10A7008C3
:1036360071040319472BF501F50AF11B2E2B0130F6
:103646000310F00DF10DFF3E031D232B0130F40096
:103656007408F507202B71087302031D342B7008BC
:103666007202031C3C2B7008F2027108031CF30360
:10367600F30201300310F10CF00CFF3E031D3D2B4D
:103686000130F502031D2E2B760803194F2BF20984
:10369600F309F20A0319F30A7308F1007208F0003D
:1036A600080000300A168A1505210A168A15033005
:1036B6000A168A151F210A168A150730F5007D306D
:1036C600F400F40B642BF50B642B03300A168A15F1
:1036D6001F210A168A150F30F5004730F400F40B47
:1036E600722BF50B722B772B03300A168A151F21C6
:1036F6000A168A1502300A168A151F210A168A1515
:1037060002300A168A151F210A168A1508300A166B
:103716008A151F210A168A1500300A168A151F21D6
:103726000A168A150C300A168A151F210A168A15DA
:1037360000300A168A151F210A168A1506300A163F
:103746008A151F210800F40074080F39F10071086A
:10375600F2007408F039F1007108F30083120313C4
:1037660086147308F10004300310F10CFF3E031DAC
:10377600B72B71080A168A1505210A168A158312AF
:10378600031306153330F5008230F6000000FF30D3
:10379600F5070318F60AFF30F6077608803AFF00A9
:1037A60080307F02031DD92B01307502031CC92B03
:1037B60083120313061172080A168A1505210A16C2
:1037C6008A158312031306153330F7008230F8008A
:1037D6000000FF30F7070318F80AFF30F8077808EB
:1037E600803AFF0080307F02031DFB2B01307702F9
:1037F600031CEB2B83120313061108008312031319
:10380600A101F81F0D2CF709F809F70A0319F80AA0
:10381600A101A10AFA1F182CF909FA09F90A0319D4
:10382600FA0A0130FB007B08A106A201A301770872
:10383600780403194F2CA001A00AF81B2E2C013086
:103846000310F70DF80DFF3E031D232C0130FB007E
:103856007B08A007202C01300310A20DA30DFF3E0C
:10386600031D2F2C78087A02031D3B2C770879025A
:10387600031C442C7708F9027808031CFA03FA02A1
:10388600221401300310F80CF70CFF3E031D452CE3
:103896000130A002031D2E2C21080319572CA20962
:1038A600A309A20A0319A30A2308F8002208F700AD
:1038B60008000030FC000030FB000030FA00003049
:1038C600F90073087204710470040319B12CFD0128
:1038D600FD0AF31B7C2C0130F8000310F00DF10DEE
:1038E600F20DF30DF80B702C0130F8007808FD0787
:1038F6006C2C0130F8000310F90DFA0DFB0DFC0DD0
:10390600F80B7E2C73087702031D932C720876023F
:10391600031D932C71087502031D932C7008740205
:10392600031CA42C7008F4027108031C710FF50225
:103936007208031C720FF6027308031C730FF7025A
:10394600791401300310F30CF20CF10CF00CFF3E6D
:10395600031DA52C0130FD02031D7C2C7C08F30001
:103966007B08F2007A08F1007908F00008000310DD
:1039760083120313530D540DD5005508DB005B0865
:10398600031DCE2C0030D4000030D3000030D2000E
:103996000030D10008005108D5005208D60053085F
:1039A600D7005408D8001F300310D80CD70CD60CFB
:1039B600D50CFF3E031DD72C5508D9005908DA004F
:1039C600D317FF30D105FF30D205FF30D3050030C5
:1039D600D4059630DB02DB1F052D5B08803A973E47
:1039E600031CC52C01300310D40CD30CD20CD10C03
:1039F600FF3E031DF62C0130D5005508DB070319E1
:103A0600182DF52C20305B020318C52C5B08031912
:103A1600182D0130D5000310D10DD20DD30DD40DC4
:103A2600D50B0E2D0130DB02092D5A0803190800AB
:103A3600D109D209D309D409D10A0319D20A031923
:103A4600D30A0319D40A080000307005F8000030C4
:103A56007105F90080307205FA007F307305FB00AE
:103A66007B087A0479047804031D412D0030F300A5
:103A76000030F2000030F1000030F0000030740534
:103A8600F80000307505F90080307605FA007F30C1
:103A96007705FB007B087A0479047804031D5B2D07
:103AA6000030F7000030F6000030F5000030F4007A
:103AB600F31F812D0030F8000030F9000030FA00C5
:103AC6008030FB007008F8027108031C710F6C2D22
:103AD6006D2DF9027208031C720F722D732DFA02F6
:103AE6007308031C730F782D792DFB027B08F300F6
:103AF6007A08F2007908F1007808F000F71FA72D80
:103B06000030F8000030F9000030FA008030FB0089
:103B16007408F8027508031C750F922D932DF9028F
:103B26007608031C760F982D992DFA027708031C48
:103B3600770F9E2D9F2DFB027B08F7007A08F60073
:103B46007908F5007808F4008030F3068030F7062F
:103B560077087302031D080076087202031D080029
:103B660075087102031D0800740870020800F80049
:103B76007808031DF31FCF2D7009FA007109FB00A9
:103B86007209FC007309FD00FA0A0319FB0A0319FE
:103B9600FC0A0319FD0AD72D7308FD007208FC0004
:103BA6007108FB007008FA0073087204710470044F
:103BB600031DE62D0030F3000030F2000030F10066
:103BC6000030F00008009630F4007408F900FE306A
:103BD6007D050319172E0130F4007408F90701302A
:103BE6000310FD0CFC0CFB0CFA0CFF3E031DF32D21
:103BF600EA2D0130F4007408F9070130FA070030A5
:103C060003180130FB07003003180130FC070030B1
:103C160003180130FD0701300310FD0CFC0CFB0CF2
:103C2600FA0CFF3E031D0F2EFF307D0503192B2EC8
:103C3600FC2D02307902031C2D2E0130F9020130D1
:103C4600F4000310FA0DFB0DFC0DFD0DF40B242EF4
:103C5600FC1F1C2E7918372EFF30FA05FF30FB05A6
:103C66007F30FC05FF30FD050310F90C7908F400E0
:103C7600F501F601F70118300310F40DF50DF60DF8
:103C8600F70DFF3E031D3F2E7408FA047508FB046A
:103C96007608FC047708FD047808031DF31F542EEC
:103CA600FD177D08F3007C08F2007B08F1007A0816
:103CB600F00008008316031327088039A800280897
:103CC600B1002708A8002807A9002908B800A61BE4
:103CD6003814380803197D2E380A031D7A2E003051
:103CE600A7000030A6000030A5000030A400A617EB
:103CF600A701852E0030A7000030A6000030A500E1
:103D06000030A40023088039A8002808B10623083B
:103D1600A8002807A9002908B900A21B39143908E8
:103D26000319A32E390A031DA02E0030A30000306C
:103D3600A2000030A1000030A000A217A301AB2E04
:103D46000030A3000030A2000030A1000030A00027
:103D56002308220421042004031DCA2E0030A700D4
:103D66000030A6000030A5000030A4008030A60474
:103D76007F30A7043108A8002808A7042708A30055
:103D86002608A2002508A1002408A000080038087B
:103D9600031DD62E0030A3000030A2000030A10083
:103DA6000030A00008003808A800A9012908AB00C7
:103DB60039082802AA00031CAB032A087F3EB2007A
:103DC6002B080318013E003EB3002708B000260862
:103DD600AF002508AE002408AD000030A700003073
:103DE600A6000030A5000030A4000030B700003067
:103DF600B6000030B5000030B400B9011A303902FF
:103E06000318492F39080319252F0130A80003107C
:103E1600AD0DAE0DAF0DB00DA80B0A2F0130A800E9
:103E26000310A40DA50DA60DA70DA80B132FB71BE8
:103E360024140130A8000310B40DB50DB60DB70D4E
:103E4600A80B1E2F23083002031D332F22082F0232
:103E5600031D332F21082E02031D332F20082D02A8
:103E6600031C442F37172008AD022108031C210F1D
:103E7600AE022208031C220FAF022308031C230FE5
:103E8600B0020130A8002808B907012F30082F0416
:103E96002E042D04031D3414A61B6C2F0130A8001C
:103EA6000310A40DA50DA60DA70DA80B532FB71B28
:103EB60024140130A8000310B40DB50DB60DB70DCE
:103EC600A80B5E2FFF30B2070318B30AFF30B30703
:103ED6004F2FB901B71F852FFF303405A800FF30DB
:103EE6003505A900FF303605AA007F303705AB003F
:103EF6002B082A042904280403192418832F852F44
:103F0600B901B90A39080319B72F0130A4070030DF
:103F160003180130A507003003180130A60700304A
:103F260003180130A707271CB72F2408A800250867
:103F3600A9002608AA002708AB000130AC002B0D0B
:103F4600AB0CAA0CA90CA80CAC0BA22F2B08A70033
:103F56002A08A6002908A5002808A4000130B207EF
:103F66000318B30A0030B3073308803AFF008030E5
:103F76007F02031DC02FFF303202031CD02FFF30FB
:103F860083160313B2000030B3000030A7000030E0
:103F9600A6000030A5000030A400831603133308E2
:103FA600803AFF0080307F02031DDB2F0130320292
:103FB6000318EA2F83160313B201B3010030A700DA
:103FC6000030A6000030A5000030A400B101831621
:103FD60003133208A8002808B800381CF42FA617C7
:103FE600F82F7F30A8002808A6053808A800031077
:0A3FF600280CA9002908A700BD2E21
:02400E0076FF3B
:00000001FF
