:020000040000FA
:060000000A128A11FC2F18
:1000080083120313D1006E305102031C16293F30AE
:10001800A7000030A6000030A5000030A40064301E
:10002800F6000030F7005108C200C3014208F8008A
:100038004308F9000A168A15F4240A128A11760868
:1000480083120313C40001300310C40DFF3E031DC7
:1000580028280310440D7D3E84000A128A150A20C0
:100068000A128A11C5000A128A150A200A128A1170
:10007800C6000A128A150A200A128A11C7000A1233
:100088008A150A200A128A11C8004808AB004708D6
:10009800AA004608A9004508A8000A128A15A22144
:1000A8000A128A11831203132708D0002608CF00EA
:1000B8002508CE002408CD000A30F6000030F700ED
:1000C8005108C200C3014208F2004308F30064303B
:1000D800F0000030F1000A128A15C6200A128A11AF
:1000E8007108F9007008F8000A168A15F4240A1233
:1000F8008A11760883120313C40001300310C40D5B
:10010800FF3E031D82280310440D593E84000A1245
:100118008A150A200A128A11C5000A128A150A20AD
:100128000A128A11C6000A128A150A200A128A11AE
:10013800C7000A128A150A200A128A11C80048083C
:10014800A7004708A6004608A5004508A4005008CF
:10015800AB004F08AA004E08A9004D08A8000A12D3
:100168008A15A2210A128A11831203132708CC00C8
:100178002608CB002508CA002408C9000A30F00068
:100188000030F1005108C200C3014208F2004308E0
:10019800F3000A128A15C6200A128A1170088312FF
:1001A8000313C40001300310C40DFF3E031DD728FC
:1001B8000310440D353E84000A128A150A200A12DB
:1001C8008A11C5000A128A150A200A128A11C60065
:1001D8000A128A150A200A128A11C7000A128A15F9
:1001E8000A200A128A11C8004808A7004708A60072
:1001F8004608A5004508A4004C08AB004B08AA0017
:100208004A08A9004908A8000A128A15A2218312DF
:1002180003132708C1002608C0002508BF002408CA
:10022800BE0008000B305102031CC3293F30A70051
:100238000030A6000030A5000030A4000A30F60007
:100248000030F7005108C200C3014208F800430813
:10025800F9000A168A15F4240A128A1176088312FC
:100268000313C40001300310C40DFF3E031D3729DA
:100278000310440D593E84000A128A150A200A12F6
:100288008A11C5000A128A150A200A128A11C600A4
:100298000A128A150A200A128A11C7000A128A1538
:1002A8000A200A128A11C8004808AB004708AA00A9
:1002B8004608A9004508A8000A128A15A2210A12B0
:1002C8008A11831203132708D0002608CF002508B7
:1002D800CE002408CD000A30F0000030F1005108AB
:1002E800C200C3014208F2004308F3000A128A154B
:1002F800C6200A128A11700883120313C400013041
:100308000310C40DFF3E031D84290310440D353E20
:1003180084000A128A150A200A128A11C5000A12D4
:100328008A150A200A128A11C6000A128A150A209A
:100338000A128A11C7000A128A150A200A128A119B
:10034800C8004808A7004708A6004608A5004508B1
:10035800A4005008AB004F08AA004E08A9004D0899
:10036800A8000A128A15A221831203132708C100C4
:100378002608C0002508BF002408BE0008003F303A
:10038800A7000030A6000030A5000030A4005108E6
:10039800C20001300310C20DFF3E031DCE29031019
:1003A800420D353E84000A128A150A200A128A1163
:1003B800C3000A128A150A200A128A11C4000A12F6
:1003C8008A150A200A128A11C5000A128A150A20FB
:1003D8000A128A11C6004608AB004508AA0044085C
:1003E800A9004308A8000A128A15A2218312031340
:1003F8002708C1002608C0002508BF002408BE0041
:10040800080083160313BD00A130A5002508AE001F
:100418000130A007FF30200784000A128A150A203D
:100428000A128A11A5002508C20042080319F72FED
:10043800253042060319222A4208EC2FAF01B001E9
:10044800200884000A128A150A200A128A112E3AF4
:10045800031D6F2A30170130A5002508A007BB012E
:10046800BC01200884000A128A150A200A128A117F
:100478000A168A1523240A128A11031C752A831660
:1004880003133C08F1003B08F0000A30F20000308A
:10049800F3000A168A1565240A128A1183160313B3
:1004A800200884000A128A150A200A128A11700785
:1004B800A5000030031801307107A6002508D03EBA
:1004C800BB0026080318013EFF3EBC000130A50012
:1004D8002508A007352ABB01BC013016752A30153E
:1004E800912A013083160313A007FF3020078400E8
:1004F8000A128A150A200A128A11C200A500A6014A
:100508002608003A0319892A0C2A2508003A0319F3
:10051800F72F663A0319732A0C2A00302F05A50015
:1005280007303005A600250826040319B92F301E08
:10053800A12A0630BB000030BC002E0884008313BB
:100548000008BE00840A0008BF00840A0008C00032
:10055800840A0008C1000430A5002508AE07410838
:10056800F3004008F2003F08F1003E08F0000030B8
:10057800F7000030F6000030F5000030F4000A16ED
:100588008A117A200A128A110318E72A831603139C
:100598004108F3004008F2003F08F1003E08F0006F
:1005A8000A168A151A240A128A1173088316031365
:1005B800C1007208C0007108BF007008BE00033097
:1005C800AF040030B00483160313B501B601410827
:1005D800F3004008F2003F08F1003E08F000003048
:1005E800F7000030F6000030F5000030F4000A167D
:1005F8008A1571250A128A110318EB2B031083162A
:100608000313400D410D823EB500FF300318003042
:10061800B600FF30B5070318B60AFF30B607033037
:10062800F0000030F1003608F3003508F2000A1631
:100638008A1565240A128A11710883160313B600F5
:100648007008B5000A30F7000030F8003608FA00E4
:100658003508F9000A168A1547270A128A117808F8
:1006680083160313B6007708B500B61F412BFF3079
:10067800B5070318B60AFF30B6073503FF3A0A1262
:100688008A15B7240A128A118312031341088316A4
:100698000313BA0083120313400883160313B90027
:1006A800831203133F0883160313B800831203133E
:1006B8003E0883160313B700410883120313A700EB
:1006C80083160313400883120313A600831603132B
:1006D8003F0883120313A500831603133E088312F1
:1006E8000313A400831603133A0883120313AB0001
:1006F80083160313390883120313AA0083160313FE
:10070800380883120313A9008316031337088312CA
:100718000313A8000A128A15A2210A128A11831249
:100728000313270883160313BA008312031326083A
:1007380083160313B90083120313250883160313C2
:10074800B80083120313240883160313B7003A086A
:10075800F3003908F2003808F1003708F0003F309C
:10076800F7008030F6000030F5000030F4000A167B
:100778008A117A200A128A110318CA2BFF308316AD
:100788000313B5070318B60AFF30EA2B83160313C1
:100798003A08F3003908F2003808F1003708F00089
:1007A8004130F7002030F6000030F5000030F4004A
:1007B8000A168A117A200A128A11031CEB2B0130BF
:1007C80083160313B5070318B60A0030B607831655
:1007D80003133C08803AFF0080307F02031DF62B8C
:1007E8000D303B0203183F2C831603133B080A12F3
:1007F8008A1104200A128A11831203134108D500B2
:100808004008D4003F08D3003E08D20083160313E3
:10081800410883120313D900831603134008831277
:100828000313D800831603133F0883120313D7005A
:10083800831603133E0883120313D6000A168A117F
:10084800D1250A128A11831203135508831603133C
:10085800C10083120313540883160313C0008312C4
:100868000313530883160313BF008312031352089C
:1008780083160313BE00831603133608803AFF005D
:1008880080307F02031D4A2C0A3035020318972C4A
:10089800831603134108F3004008F2003F08F100F3
:1008A8003E08F0000030F7000030F6000030F50098
:1008B8000030F4000A168A1571250A128A110318E5
:1008C800002D83160313410883120313D4008316E3
:1008D8000313400883120313D300831603133F083E
:1008E80083120313D200831603133E0883120313E3
:1008F800D1000A168A110D200A128A1183120313D5
:100908005408530452045104031D002D8316031385
:100918003608803AFF0080307F02031D952C023094
:100928003502031C002D831603133A08F300390817
:10093800F2003808F1003708F0004030F70089303D
:10094800F6007030F5005F30F4000A168A117A203C
:100958000A128A110318B22CF730B32CF830831618
:100968000313B5070318B60AFF30B60735080A128D
:100978008A15B7240A128A118312031341088316B1
:100988000313BA0083120313400883160313B90034
:10099800831203133F0883160313B800831203134B
:1009A8003E0883160313B7004108F3004008F2001D
:1009B8003F08F1003E08F0003A08F7003908F60051
:1009C8003808F5003708F4000A128A15F8200A12C8
:1009D8008A11730883160313B4007208B3007108F0
:1009E800B2007008B1000030C1000030C000003013
:1009F800BF000030BE00842D831603134108831204
:100A08000313D40083160313400883120313D3007F
:100A1800831603133F0883120313D20083160313AC
:100A28003E0883120313D1000A168A110D200A12F8
:100A38008A1183120313540883160313B400831214
:100A48000313530883160313B300831203135208C6
:100A580083160313B200831203135108831603137A
:100A6800B1003408F3003308F2003208F10031080D
:100A7800F00000300A168A110D210A128A11730833
:100A880083120313E9007208E8007108E700700890
:100A9800E60083160313410883120313ED0083163F
:100AA8000313400883120313EC00831603133F0853
:100AB80083120313EB00831603133E0883120313F8
:100AC800EA000A168A1586240A128A118312031369
:100AD800690883160313C100831203136808831679
:100AE8000313C00083120313670883160313BF00A0
:100AF80083120313660883160313BE00B501B601FB
:100B0800C201C20A4208A50001300310A50DFF3E2C
:100B1800031D892D0310250D693E84000A128A15CC
:100B28000A200A128A11A6000A128A150A200A1235
:100B38008A11A7000A128A150A200A128A11A80027
:100B48000A128A150A200A128A11A90029083402F1
:100B5800031DB82D28083302031DB82D27083202BB
:100B6800031DB82D26083102031CC22D0130A50033
:100B78002508C2070A304206031D862D03302F05BB
:100B8800A50000303005A600250826040319D72D36
:100B98002D30A5003D08840025088313800001300E
:100BA800A5002508BD070130C202420A03194C2ED0
:100BB8004208A50001300310A50DFF3E031DDF2DDF
:100BC8000310250D693E84000A128A150A200A12AC
:100BD8008A11F0000A128A150A200A128A11F100F5
:100BE8000A128A150A200A128A11F2000A128A15B4
:100BF8000A200A128A11F3003408F7003308F600B5
:100C08003208F5003108F4000A168A15A2270A12DC
:100C18008A11730883160313BA007208B9007108A1
:100C2800B8007008B7000030F3000030F200003060
:100C3800F1000A30F0003A08F7003908F6003808E1
:100C4800F5003708F4000A168A154E260A128A118A
:100C5800730883160313BA007208B9007108B80044
:100C68007008B7003708303ECD2D30308316031397
:100C7800A5003D0884002508831380000130A500E5
:100C88002508BD07FF30B5070318B60AFF30B607B9
:100C98003608803AFF0080307F02031D552E013050
:100CA80035020318392E831603133C08803AFF00D7
:100CB80080307F02031D622E09303B02031C682E20
:100CC8000830831603136B2E831603133B08A50005
:100CD8002508C2004208A500A6012508BB0226086F
:100CE800031CBC03BC0242080319852E2E30A50044
:100CF8003D0884002508831380000130A5002508DD
:100D0800BD0742080A128A15B7240A128A118312EB
:100D18000313410883160313AD008312031340081D
:100D280083160313AC00831203133F0883160313BF
:100D3800AB00831203133E0883160313AA002D0881
:100D480083120313AB00831603132C0883120313B7
:100D5800AA00831603132B0883120313A900831612
:100D680003132A0883120313A800831603134108E8
:100D780083120313A7008316031340088312031377
:100D8800A600831603133F0883120313A5008316D6
:100D980003133E0883120313A4000A128A15A22122
:100DA8000A128A11831203132708D4002608D300D5
:100DB8002508D2002408D1000A168A110D200A122B
:100DC8008A1183120313540883160313B400831281
:100DD8000313530883160313B30083120313520833
:100DE80083160313B20083120313510883160313E7
:100DF800B1000130C202420A0319B42F4208A5000B
:100E080001300310A50DFF3E031D052F0310250D0E
:100E1800693E84000A128A150A200A128A11F00013
:100E28000A128A150A200A128A11F1000A128A1572
:100E38000A200A128A11F2000A128A150A200A12D6
:100E48008A11F3003408F7003308F6003208F50079
:100E58003108F4000A168A15A2270A128A117308A3
:100E680083160313BA007208B9007108B800700835
:100E7800B7000030F3000030F2000030F1000A3013
:100E8800F0003A08F7003908F6003808F500370886
:100E9800F4000A168A154E260A128A117308831658
:100EA8000313BA007208B9007108B8007008B700D7
:100EB8003708303EA5003D088400250883138000CC
:100EC8000130A5002508BD074208A5000130031020
:100ED800A50DFF3E031D6B2F0310250D693E8400F1
:100EE8000A128A150A200A128A11F0000A128A15B3
:100EF8000A200A128A11F1000A128A150A200A1217
:100F08008A11F2000A128A150A200A128A11F300BD
:100F18003408F7003308F6003208F5003108F40009
:100F28000A168A154E260A128A11730883160313A5
:100F3800B4007208B3007108B2007008FC2E30309B
:100F4800A5003D0884002508831380000130A50012
:100F58002508BD07FF30BB070318BC0AFF30BC07D4
:100F68003B083C0403190C2AA32F3B083C04031D2F
:100F7800C92F3408330432043104031DC92F01304A
:100F8800BB070318BC0A0030BC073C08803A803C09
:100F9800031DD02F3B084202031CDF2F83160313C7
:100FA8003C08803AA50080302502031DDD2F420849
:100FB8003B02031CDF2F0330831603132F05A50004
:100FC80000303005A6002508260403190C2A2D3008
:100FD800A5003D0884002508831380000130A50082
:100FE8002508BD070C2A3D088400831380010800EA
:100FF80083010A168A11FC2BFF1B0A2883137F180A
:1010080083170008840A0319FF0A080008308A00B9
:101018000408840A820700340034003480343F34E2
:10102800003400342034413400340034C8344234AD
:10103800003400347A344434003440341C344634A8
:1010480000345034C33447340034243474344934BD
:101058008034963418344B342034BC34BE344C3489
:1010680028346B346E344E34F93402341534503429
:10107800EC347834AD346034CA34F23449347134E1
:101088000034003480343F34CD34CC34CC343D3457
:101098000A34D73423343C346F34123483343A342A
:1010A8001734B734D1343834AC34C53427343734F2
:1010B800BD343734863435349534BF34D63433347C
:1010C8007734CC342B3432345F3470348934303450
:1010D800FF34E634DB342E340834E5343C341E3433
:1010E80060344234A2340D34013400340034003406
:1010F8000A340034003400346434003400340034DA
:10110800E834033400340034103427340034003415
:10111800A034863401340034403442340F3400346F
:1011280080349634983400340034E134F53405348E
:101138000034CA349A343B344334753472347234CC
:1011480020344C3469346D346934743420340034B8
:1011580020345634203420342034203400342534CC
:101168002E3431346634003425342E343234663427
:1011780000342034413420340034203441340034E5
:10118C00700871040319F328F501F50AF11BDA282C
:10119C0001300310F00DF10DFF3E031DCF2801307F
:1011AC00F4007408F507CC2871087302031DE028BD
:1011BC0070087202031CE8287008F2027108031C04
:1011CC00F303F30201300310F10CF00CFF3E031D8E
:1011DC00E9280130F502031DDA287308F1007208C2
:1011EC00F00008000310720D730DF80078088312DC
:1011FC000313A5002508031D0C290030F300003053
:10120C00F2000030F1000030F00008000310760D01
:10121C00770DF8007808A400240803190329F217A5
:10122C00FF30F005FF30F105FF30F2050030F3051B
:10123C00F617FF30F405FF30F505FF30F6050030EA
:10124C00F7050030A3000030A2000030A1000030F0
:10125C00A0007F30A502A0302407F8007808A50272
:10126C002030F8007808A4000130F8000310A00D1D
:10127C00A10DA20DA30DF80B3C2977087302031DD9
:10128C00512976087202031D512975087102031D3C
:10129C00512974087002031C62297408F002750845
:1012AC00031C750FF1027608031C760FF202770807
:1012BC00031C770FF30220140130F8000310F00D1B
:1012CC00F10DF20DF30DF80B64290130A402031D8E
:1012DC003A29A51F86292508803A9F3E031C03291D
:1012EC0001300310A30CA20CA10CA00CFF3E031D9B
:1012FC0077290130F8007808A50703199929762970
:10130C0020302502031803292508031999290130D7
:10131C00F8000310A00DA10DA20DA30DF80B8F2941
:10132C000130A5028A292308F3002208F2002108C3
:10133C00F1002008F00008008312031327088039FD
:10134C00AC002C08B1002708AC002C07AD002D0810
:10135C00B700A61B371437080319C129370A031D18
:10136C00BF290030A7000030A6000030A5000030D7
:10137C00A400A617C9290030A7000030A600003031
:10138C00A5000030A4002B088039AC002C08B10655
:10139C002B08AC002C07AD002D08B600AA1B361488
:1013AC0036080319E629360A031DE4290030AB0080
:1013BC000030AA000030A9000030A800AA17EE29BE
:1013CC000030AB000030AA000030A9000030A800AB
:1013DC003608031D3708031DFC290030A700003018
:1013EC00A6000030A5000030A40008002408AC00C2
:1013FC002C08F0002A080A168A15A8240A128A1545
:10140C00710883120313BD007008BC003C08AC00CB
:10141C00AD01AE01AF012F08B5002E08B4002D08A8
:10142C00B3002C08B2003D08AC00AD01AE01AF0119
:10143C002F08BB002E08BA002D08B9002C08B800E4
:10144C002508AC002C08F00029080A168A15A824D7
:10145C000A128A15710883120313BD007008BC00B0
:10146C003C08AC00AD01AE01AF012C08B2072D0851
:10147C0003110318013E031DB3072E0803110318B3
:10148C00013E031DB4072F0803110318013E031D71
:10149C00B5073D08AC00AD01AE01AF012C08B80793
:1014AC002D0803110318013E031DB9072E08031163
:1014BC000318013E031DBA072F0803110318013E40
:1014CC00031DBB072608AC002C08F00028080A16E0
:1014DC008A15A8240A128A15710883120313BD00F9
:1014EC007008BC003C08AC00AD01AE01AF012C088B
:1014FC00B2072D0803110318013E031DB3072E0874
:10150C0003110318013E031DB4072F080311031820
:10151C00013E031DB5073D08AC00AD01AE01AF01A6
:10152C002C08B8072D0803110318013E031DB90739
:10153C002E0803110318013E031DBA072F080311CF
:10154C000318013E031DBB070830AC000310B20D9D
:10155C00B30DB40DB50DAC0BAC2A2508AC002C08A2
:10156C00F00028080A168A15A8240A128A15710890
:10157C0083120313BD007008BC003C08AC003D088E
:10158C00AD00AE01AF012C08B2072D0803110318F2
:10159C00013E031DB3072E0803110318013E031D62
:1015AC00B4072F0803110318013E031DB5072408C7
:1015BC00AC002C08F00029080A168A15A8240A1277
:1015CC008A15710883120313BD007008BC003C0817
:1015DC00AC003D08AD00AE01AF012C08B2072D08E0
:1015EC0003110318013E031DB3072E080311031842
:1015FC00013E031DB4072F0803110318013E031D00
:10160C00B5070830AC000310B20DB30DB40DB50D19
:10161C00AC0B092B2408AC002C08F00028080A1687
:10162C008A15A8240A128A15710883120313BD00A7
:10163C007008BC003C08AC003D08AD00AE01AF0129
:10164C002C08B2072D0803110318013E031DB30724
:10165C002E0803110318013E031DB4072F080311B4
:10166C000318013E031DB5072508AC002C08F0003B
:10167C002A080A168A15A8240A128A1571088312D8
:10168C000313BD007008BC003C08AC003D08AD0065
:10169C00AE01AF012C08B8072D0803110318013E49
:1016AC00031DB9072E0803110318013E031DBA07C9
:1016BC002F0803110318013E031DBB072608AC00BD
:1016CC002C08F00029080A168A15A8240A128A1573
:1016DC00710883120313BD007008BC003C08AC00F9
:1016EC003D08AD00AE01AF012C08B8072D08031161
:1016FC000318013E031DB9072E0803110318013E00
:10170C00031DBA072F0803110318013E031DBB0765
:10171C002608AC002C08F0002A080A168A15A82402
:10172C000A128A15710883120313BD007008BC00DD
:10173C003C08AC003D08AD00AE01AF010830031011
:10174C00AC0DAD0DAE0DAF0DFF3E031DA52B2C0842
:10175C00B8072D0803110318013E031DB9072E0805
:10176C0003110318013E031DBA072F0803110318B8
:10177C00013E031DBB073208AC003308AD00340832
:10178C00AE003508AF0018300310AF0CAE0CAD0C2A
:10179C00AC0CFF3E031DCA2B2C08B8072D080311F7
:1017AC000318013E031DB9072E0803110318013E4F
:1017BC00031DBA072F0803110318013E031DBB07B5
:1017CC000830AC000310B20DB30DB40DB50DAC0B5D
:1017DC00E82B37083607AC00AD01AD0D2C08823E66
:1017EC00BC002D080318013EFF3EBD00BA1B192C8E
:1017FC000130AC000310B80DB90DBA0DBB0DAC0B1C
:10180C00002CB51B38140130AC000310B20DB30D15
:10181C00B40DB50DAC0B0B2CFF30BC070318BD0A77
:10182C00FF30BD07FC2BB601B51F322CFF30320543
:10183C00AC00FF303305AD00FF303405AE007F3017
:10184C003505AF002F082E042D042C04031938186D
:10185C00302C322CB601B60A36080319642C013030
:10186C00B807003003180130B907003003180130F5
:10187C00BA07003003180130BB073B1C642C380836
:10188C00AC003908AD003A08AE003B08AF0001309F
:10189C00B0002F0DAF0CAE0CAD0CAC0CB00B4F2C34
:1018AC002F08BB002E08BA002D08B9002C08B80070
:1018BC000130BC070318BD0A0030BD073D08803A53
:1018CC00FF0080307F02031D6D2CFF303C02031C97
:1018DC007A2C7F3083120313BB008030BA000030A7
:1018EC00B9000030B800AA2C831203133D08803ACB
:1018FC00FF0080307F02031D852C01303C02031851
:10190C00932C003083120313BB000030BA0000305C
:10191C00B9000030B800B101AA2C831203133C08A3
:10192C00AC002C08B700FF30B805FF30B9057F308C
:10193C00BA050030BB053718BA173708AC000310CE
:10194C002C0CAD002D08BB003108AC002C08BB04DE
:10195C003B08A7003A08A6003908A5003808A400DF
:10196C00080083120313D000D01F5F2ED009D00AB9
:10197C005008803A123E031CA92D0A30F7000030A3
:10198C00F8005008F200F301F21BF3036430F0008E
:10199C000030F1000A168A1503260A128A157108FE
:1019AC00FA007008F9000A168A1547270A128A15D8
:1019BC00770883120313C20001300310C20DFF3EDF
:1019CC00031DE32C0310420D593E84000A128A15A4
:1019DC000A200A128A15C3000A128A150A200A1252
:1019EC008A15C4000A128A150A200A128A15C50023
:1019FC000A128A150A200A128A15C6004608A70080
:101A0C004508A6004408A5004308A4006430F7006C
:101A1C000030F8005008F900FA01F91BFA030A1615
:101A2C008A1547270A128A15770883120313C700F1
:101A3C0001300310C70DFF3E031D1F2D0310470D72
:101A4C007D3E84000A128A150A200A128A15C800E3
:101A5C000A128A150A200A128A15C9000A128A1556
:101A6C000A200A128A15CA000A128A150A200A12BA
:101A7C008A15CB004B08AB004A08AA004908A900FC
:101A8C004808A8000A128A15A2210A128A15831284
:101A9C0003132708CF002608CE002508CD00240804
:101AAC00CC000A30F0000030F1005008F200F301D5
:101ABC00F21BF3030A168A1503260A128A157008FC
:101ACC0083120313C20001300310C20DFF3E031D2D
:101ADC006A2D0310420D353E84000A128A150A2025
:101AEC000A128A15C3000A128A150A200A128A15CC
:101AFC00C4000A128A150A200A128A15C5000A1295
:101B0C008A150A200A128A15C6004608A70045083D
:101B1C00A6004408A5004308A4004F08AB004E08DB
:101B2C00AA004D08A9004C08A8000A128A15A22187
:101B3C00831203132708C1002608C0002508BF0024
:101B4C002408BE0008005008803A753E031C342E51
:101B5C000A30F0000030F1005008F200F301F21BE3
:101B6C00F3030A168A1503260A128A1570088312C3
:101B7C000313C20001300310C20DFF3E031DC12D23
:101B8C000310420D353E84000A128A150A200A12EF
:101B9C008A15C3000A128A150A200A128A15C40073
:101BAC000A128A150A200A128A15C5000A128A1509
:101BBC000A200A128A15C6004608A7004508A60086
:101BCC004408A5004308A4000A30F7000030F800D0
:101BDC005008F900FA01F91BFA030A168A1547276F
:101BEC000A128A15770883120313C70001300310F9
:101BFC00C70DFF3E031DFD2D0310470D593E8400FC
:101C0C000A128A150A200A128A15C8000A128A15A5
:101C1C000A200A128A15C9000A128A150A200A1209
:101C2C008A15CA000A128A150A200A128A15CB00D4
:101C3C004B08AB004A08AA004908A9004808A800AC
:101C4C000A128A15A221831203132708C100260841
:101C5C00C0002508BF002408BE0008005008C200C0
:101C6C0001300310C20DFF3E031D372E0310420D31
:101C7C00353E84000A128A150A200A128A15C300FE
:101C8C000A128A150A200A128A15C4000A128A1529
:101C9C000A200A128A15C5000A128A150A20C600E3
:101CAC004608C1004508C0004408BF004308BE00F8
:101CBC0008005008803A123E031C4A2F0A30F700E5
:101CCC000030F8005008F200F301F21BF30364300B
:101CDC00F0000030F1000A168A1503260A128A1544
:101CEC007108FA007008F9000A168A1547270A12BB
:101CFC008A15770883120313C20001300310C20D3A
:101D0C00FF3E031D842E0310420D253E84000A1253
:101D1C008A150A200A128A15C3000A128A150A208B
:101D2C000A128A15C4000A128A150A200A128A1588
:101D3C00C5000A128A150A200A128A15C60046081E
:101D4C00A7004508A6004408A5004308A400643079
:101D5C00F7000030F8005008F900FA01F91BFA03FB
:101D6C000A168A1547270A128A1577088312031355
:101D7C00C70001300310C70DFF3E031DC02E03101A
:101D8C00470D493E84000A128A150A200A128A1548
:101D9C00C8000A128A150A200A128A15C9000A12EA
:101DAC008A150A200A128A15CA000A128A150A20F4
:101DBC000A128A15CB004B08AB004A08AA00490846
:101DCC00A9004808A8000A128A15A2210A128A152D
:101DDC00831203132708CF002608CE002508CD0058
:101DEC002408CC000A30F0000030F1005008F2005A
:101DFC00F301F21BF3030A168A1503260A128A153D
:101E0C00700883120313C20001300310C20DFF3E91
:101E1C00031D0B2F0310420D013E84000A128A157C
:101E2C000A200A128A15C3000A128A150A200A12FD
:101E3C008A15C4000A128A150A200A128A15C500CE
:101E4C000A128A150A200A128A15C6004608A7002B
:101E5C004508A6004408A5004308A4004F08AB00A1
:101E6C004E08AA004D08A9004C08A8000A128A15B1
:101E7C00A221831203132708C1002608C0002508DD
:101E8C00BF002408BE0008005008803A753E031CB1
:101E9C00D52F0A30F0000030F1005008F200F301A9
:101EAC00F21BF3030A168A1503260A128A15700808
:101EBC0083120313C20001300310C20DFF3E031D39
:101ECC00622F0310420D013E84000A128A150A206B
:101EDC000A128A15C3000A128A150A200A128A15D8
:101EEC00C4000A128A150A200A128A15C5000A12A1
:101EFC008A150A200A128A15C6004608A70045084A
:101F0C00A6004408A5004308A4000A30F7000030DE
:101F1C00F8005008F900FA01F91BFA030A168A15A1
:101F2C0047270A128A15770883120313C70001305A
:101F3C000310C70DFF3E031D9E2F0310470D253EBA
:101F4C0084000A128A150A200A128A15C8000A127D
:101F5C008A150A200A128A15C9000A128A150A2043
:101F6C000A128A15CA000A128A150A200A128A1540
:101F7C00CB004B08AB004A08AA004908A900480846
:101F8C00A8000A128A15A221831203132708C10084
:101F9C002608C0002508BF002408BE000800500811
:101FAC00C20001300310C20DFF3E031DD82F0310D9
:101FBC00420D013E84000A128A150A200A128A1563
:101FCC00C3000A128A150A200A128A15C4000A12C2
:101FDC008A150A200A128A15C5000A128A150A20C7
:101FEC00C6004608C1004508C0004408BF004308AD
:041FFC00BE0008001B
:1020040000300A168A154B240A168A1101300A1662
:102014008A154B240800031083120313530D540D27
:10202400D5005508DB005B08031D21280030D400CF
:102034000030D3000030D2000030D1000800510835
:10204400D5005208D6005308D7005408D8001F30D2
:102054000310D80CD70CD60CD50CFF3E031D2A2830
:102064005508D9005908DA00D317FF30D105FF30DD
:10207400D205FF30D3050030D4059630DB02DB1FD8
:1020840058285B08803A973E031C18280130031037
:10209400D40CD30CD20CD10CFF3E031D49280130C3
:1020A400D5005508DB0703196B28482820305B024C
:1020B400031818285B0803196B280130D500031096
:1020C400D10DD20DD30DD40DD50B61280130DB0217
:1020D4005C285A0803190800D109D209D309D40984
:1020E400D10A0319D20A0319D30A0319D40A08001E
:1020F40000307005F80000307105F9008030720579
:10210400FA007F307305FB007B087A0479047804B5
:10211400031D94280030F3000030F2000030F10079
:102124000030F00000307405F80000307505F90047
:1021340080307605FA007F307705FB007B087A044F
:1021440079047804031DAE280030F7000030F6004F
:102154000030F5000030F400F31FD4280030F800FC
:102164000030F9000030FA008030FB007008F802FB
:102174007108031C710FBF28C028F9027208031CE0
:10218400720FC528C628FA027308031C730FCB28E4
:10219400CC28FB027B08F3007A08F2007908F100EE
:1021A4007808F000F71FFA280030F8000030F90032
:1021B4000030FA008030FB007408F8027508031C34
:1021C400750FE528E628F9027608031C760FEB283C
:1021D400EC28FA027708031C770FF128F228FB0297
:1021E4007B08F7007A08F6007908F5007808F4000F
:1021F4008030F3068030F70677087302031D080069
:1022040076087202031D080075087102031D080098
:10221400740870020800F8007808031DF31F2229CF
:102224007009FA007109FB007209FC007309FD00D2
:10223400FA0A0319FB0A0319FC0A0319FD0A2A29DD
:102244007308FD007208FC007108FB007008FA00B6
:102254007308720471047004031D39290030F300FB
:102264000030F2000030F1000030F0000800963039
:10227400F4007408F900FE307D0503196A29013061
:10228400F4007408F90701300310FD0CFC0CFB0C7E
:10229400FA0CFF3E031D46293D290130F400740861
:1022A400F9070130FA07003003180130FB0700304A
:1022B40003180130FC07003003180130FD0701301A
:1022C4000310FD0CFC0CFB0CFA0CFF3E031D6229F1
:1022D400FF307D0503197E294F2902307902031C42
:1022E40080290130F9020130F4000310FA0DFB0DCE
:1022F400FC0DFD0DF40B7729FC1F6F2979188A2931
:10230400FF30FA05FF30FB057F30FC05FF30FD058B
:102314000310F90C7908F400F501F601F7011830FF
:102324000310F40DF50DF60DF70DFF3E031D922974
:102334007408FA047508FB047608FC047708FD04A5
:102344007808031DF31FA729FD177D08F3007C08F7
:10235400F2007B08F1007A08F00008007008F80029
:102364007108F9007208FA000310790D7A0DFB0068
:102374007B0883120313A5002508031DCA29003016
:10238400F3000030F2000030F1000030F0000800EB
:102394007408F8007508F9007608FA000310790D3E
:1023A4007A0DFB007B08A40024080319C129F11746
:1023B400FF30F005FF30F1050030F205F517FF306E
:1023C400F405FF30F5050030F6050030A3000030B9
:1023D400A2000030A1000030A0007F30A502983098
:1023E4002407F8007808A5021830F8007808A4003B
:1023F4000130F8000310A00DA10DA20DA30DF80BE0
:10240400FC2976087202031D0D2A75087102031D4A
:102414000D2A74087002031C1A2A7408F002750845
:10242400031C750FF1027608031C760AF2022014CD
:1024340001300310F00DF10DF20DFF3E031D1B2AB8
:102444000130A402031DFA29A51F3D2A2508803A5C
:10245400973E031CC12901300310A30CA20CA10C4C
:10246400A00CFF3E031D2E2A0130F8007808A507B2
:102474000319502A2D2A183025020318C1292508CA
:102484000319502A0130F8000310A00DA10DA20D6C
:10249400A30DF80B462A0130A502412A2308F300B4
:1024A4002208F2002108F1002008F000080083123D
:1024B400031345088039C6004608CF004508C60006
:1024C4004607C7004708D600C41B5614560803190C
:1024D400792A560A031D762A0030C5000030C4004C
:1024E4000030C3000030C200C417C501812A003087
:1024F400C5000030C4000030C3000030C2004108F1
:102504008039C6004608CF064108C6004607C70002
:102514004708D700C01B5714570803199F2A570AA6
:10252400031D9C2A0030C1000030C0000030BF00F1
:102534000030BE00C017C101A72A0030C10000301E
:10254400C0000030BF000030BE00410840043F041A
:102554003E04031DC62A0030C5000030C40000300C
:10256400C3000030C2008030C4047F30C5044F086B
:10257400C6004608C5044508C1004408C000430815
:10258400BF004208BE0008005608031DD22A0030CE
:10259400C1000030C0000030BF000030BE000800A1
:1025A4005608C600C7014708C90057084602C800B4
:1025B400031CC90348087F3ED00049080318013EA4
:1025C400003ED1004508CE004408CD004308CC00AD
:1025D4004208CB000030C5000030C4000030C30006
:1025E4000030C2000030D5000030D4000030D300E9
:1025F4000030D200D7011A3057020318452B570870
:102604000319212B0130C6000310CB0DCC0DCD0DC9
:10261400CE0DC60B062B0130C6000310C20DC30D30
:10262400C40DC50DC60B0F2BD51B42140130C600BB
:102634000310D20DD30DD40DD50DC60B1A2B4108A2
:102644004E02031D2F2B40084D02031D2F2B3F0864
:102654004C02031D2F2B3E084B02031C402B551725
:102664003E08CB023F08031C3F0FCC024008031C6A
:10267400400FCD024108031C410FCE020130C600B9
:102684004608D707FD2A4E084D044C044B04031D8D
:102694005214C41B682B0130C6000310C20DC30DB5
:1026A400C40DC50DC60B4F2BD51B42140130C600FB
:1026B4000310D20DD30DD40DD50DC60B5A2BFF30FC
:1026C400D0070318D10AFF30D1074B2BD701D51FF0
:1026D400812BFF305205C600FF305305C700FF3081
:1026E4005405C8007F305505C9004908480447040B
:1026F4004604031942187F2B812BD701D70A5708A8
:102704000319B32B0130C207003003180130C3078B
:10271400003003180130C407003003180130C50726
:10272400451CB32B4208C6004308C7004408C80030
:102734004508C9000130CA00490DC90CC80CC70CB2
:10274400C60CCA0B9E2B4908C5004808C40047089C
:10275400C3004608C2000130D0070318D10A003074
:10276400D1075108803AFF0080307F02031DBC2B43
:10277400FF305002031CCC2BFF3083120313D00014
:102784000030D1000030C5000030C4000030C30068
:102794000030C200831203135108803AFF008030D6
:1027A4007F02031DD72B013050020318E62B83123E
:1027B4000313D001D1010030C5000030C400003043
:1027C400C3000030C200CF01831203135008C600B7
:1027D4004608D600561CF02BC417F42B7F30C600D5
:1027E4004608C4055608C6000310460CC70047082F
:1027F400C500B92A8316031386010A168A159A2678
:102804000A168A110A168A1102200A168A110A1651
:102814008A1511240A168A11F401F40A01300A16E1
:102824008A15B9250A168A1100300A168A15CB248E
:102834000A168A11710883160313E3007008E20074
:10284400423083120313C100C830C0000030BF00FF
:102854000030BE003E30A700F930A600FF30A500CE
:10286400F830A400831603136208F0006308F10033
:102874000030F11BFF30F200F30001300A168A1118
:102884000D210A168A11730883120313AB00720810
:10289400AA007108A9007008A8000A128A15A221CA
:1028A4000A168A11831203132708C5002608C400D8
:1028B4002508C3002408C2000A168A1159220A16E0
:1028C4008A1183120313410883160313E100831250
:1028D4000313400883160313E000831203133F0815
:1028E40083160313DF00831203133E0883160313B6
:1028F400DE00A930C3004308A0006108A4006008FA
:10290400A3005F08A2005E08A100C6300A128A1163
:1029140005220A168A11C630F9000030FA000A1698
:102924008A1530250A168A119D30F9008030FA0084
:102934000A168A1530250A168A1101300A168A15D4
:10294400CB240A168A11710883160313E300700856
:10295400E200423083120313C100C830C0000030CB
:10296400BF000030BE003E30A700F930A600FF30A3
:10297400A500F830A400831603136208F00063086E
:10298400F1000030F11BFF30F200F30001300A16B1
:102994008A110D210A168A11730883120313AB00DE
:1029A4007208AA007108A9007008A8000A128A1502
:1029B400A2210A168A11831203132708C5002608C8
:1029C400C4002508C3002408C2000A168A1159222B
:1029D4000A168A1183120313410883160313E100B4
:1029E40083120313400883160313E00083120313B6
:1029F4003F0883160313DF00831203133E08831674
:102A04000313DE00A930C3004308A0006108A4003A
:102A14006008A3005F08A2005E08A100CE300A127D
:102A24008A1105220A168A11CE30F9000030FA0004
:102A34000A168A1530250A168A11AE30F90080303C
:102A4400FA000A168A1530250A168A11F401F40AC6
:102A540002300A168A15B9250A168A119130F9002E
:102A64008030FA000A168A1530250A168A110230B7
:102A74000A168A15CB240A168A11710883160313C1
:102A8400E3007008E200423083120313C100C8302F
:102A9400C0000030BF000030BE003E30A700F93057
:102AA400A600FF30A500F830A400831603136208C3
:102AB400F0006308F1000030F11BFF30F200F30076
:102AC40001300A168A110D210A168A11730883121D
:102AD4000313AB007208AA007108A9007008A800CB
:102AE4000A128A15A2210A168A11831203132708CF
:102AF400C5002608C4002508C3002408C2000A161D
:102B04008A1159220A168A11831203134108831663
:102B14000313E10083120313400883160313E00038
:102B2400831203133F0883160313DF008312031376
:102B34003E0883160313DE00A430C3004308A0003C
:102B44006108A4006008A3005F08A2005E08A10059
:102B5400D6300A128A1105220A168A11D630F900D3
:102B64000030FA000A168A1530250A168A11B23086
:102B7400F9008030FA000A168A1530250A168A11DF
:102B84000B3083160313C5002630C4005D30C30028
:102B9400C30BCA2DC40BCA2DC50BCA2D0E2C831210
:102BA400031355088039DA005A08E2005508DA00A0
:102BB4005A07DB005B08E400D41B6414640803199F
:102BC400F12D640A031DEE2D0030D5000030D40031
:102BD4000030D3000030D200D417D501F92D0030D5
:102BE400D5000030D4000030D3000030D2005908A2
:102BF4008039DA005A08E30063086206031D62178D
:102C04005908DA005A07DB005B08E300D81B631499
:102C1400630803191B2E630A031D182E0030D90004
:102C24000030D8000030D7000030D600D817D901C2
:102C3400232E0030D9000030D8000030D7000030F7
:102C4400D600640863020318692E621F2D2E80309B
:102C5400DA005A08E2066408DA005A08E500630854
:102C6400DA005A08E4006508DA005A08E30052085A
:102C7400DA005A08E5005608DA005A08D200650856
:102C8400DA005A08D6005308DA005A08E500570853
:102C9400DA005A08D3006508DA005A08D700540845
:102CA400DA005A08E5005808DA005A08D400650822
:102CB400DA005A08D8005508DA005A08E50059081D
:102CC400DA005A08D5006508DA005A08D900E50187
:102CD4006308DA00DB015B08DD0064085A02DC00EB
:102CE400031CDD035D08803AFF0080307F02031D72
:102CF4007D2E1A305C02031CB62E83120313550872
:102D04005404530452040319892E01308A2E0030CE
:102D1400DA005A08E5000030D5000030D400003055
:102D2400D3000030D2006308DA005A08E400BC2E55
:102D3400651CA52E6508DA0003105A0C0138DB0067
:102D44005B08E500A72E0310E50C5218E5170130C7
:102D5400DA00550DD50CD40CD30CD20CDA0BAB2EF7
:102D64000130DA005A08E40783120313630864028B
:102D7400031C9A2E621BFD2E6408031DCA2E00300C
:102D8400D5000030D4000030D3000030D200080059
:102D94005608D207570803110318013E031DD30731
:102DA400580803110318013E031DD40759080311E1
:102DB4000318013E031DD507551C9F2F651CEB2EE0
:102DC4006508DA0003105A0C0138DB005B08E500E3
:102DD400ED2E0310E50C5218E5170130DA00550DFD
:102DE400D50CD40CD30CD20CDA0BF12E0130DA0052
:102DF4005A08E4079F2F5508803AFF005908803A83
:102E04007F02031D0F2F58085402031D0F2F57086C
:102E14005302031D0F2F560852020318672FFF3069
:102E2400DA00FF30DB00FF30DC00FF30DD00560845
:102E3400DE005708DF005808E0005908E100520896
:102E4400DE025308031C530F282F292FDF025408D6
:102E5400031C540F2E2F2F2FE0025508031C550F6F
:102E6400342F352FE1025E08DA075F0803185F0F7D
:102E74003C2F3D2FDB0760080318600F422F432FC0
:102E8400DC0761080318610ADD075D08D5005C08EA
:102E9400D4005B08D3005A08D2008030DA005A0804
:102EA400E206E509E50A6508031D752F0130D2071E
:102EB400003003180130D307003003180130D40761
:102EC400003003180130D507752F5608D202570871
:102ED400031C570FD3025808031C580FD402590877
:102EE400031C590FD5025508540453045204031DFE
:102EF4009D2F6508031D9D2F0030D5000030D400A0
:102F04000030D3000030D20008000130DA00031092
:102F1400D20DD30DD40DD50DDA0B892FE51B521428
:102F2400651C962F0314972F0310E50D64080319ED
:102F34009D2F0130E402D41F872FE301E51FAA2F40
:102F440065087F3903195218A82FAA2FE301E30A51
:102F540063080319DD2F0130D20700300318013054
:102F6400D307003003180130D407003003180130B0
:102F7400D507551CDD2F5208DA005308DB0054082E
:102F8400DC005508DD000130DE005D0DDD0CDC0CDD
:102F9400DB0CDA0CDE0BC72F5D08D5005C08D4000F
:102FA4005B08D3005A08D200640A0319DD2F0130EC
:102FB400DA005A08E407640A031D6408031DED2FB0
:102FC4000030D5000030D4000030D3000030D200EF
:102FD40064080319E201641CF12FD417F52F7F3024
:102FE400DA005A08D4056408DA0003105A0CDB002E
:0C2FF4005B08D500E21F0800D51708009C
:103822004130831203139F00C030831603139F009D
:1038320008007308720471047004031908008030D0
:10384200F3060800F100F0013A30710203182F2C40
:1038520030307102031C2F2CF001F00A700C0800AA
:10386200F000701C382C8312031306163B2C8312B3
:1038720003130612F01C3F2C8616402C8612701D74
:10388200442C0617452C0613F01D492C86170800F8
:1038920086130800F30083120313861073080A16B6
:1038A2008A1531240A168A15831203130615063067
:1038B200F2003030F100F10B5C2CF20B5C2C0000BA
:1038C2008312031306110800F401F501701C6F2C1A
:1038D2007208F4070318F50A7308F507013003109C
:1038E200F20DF30DFF3E031D702C01300310F10C9D
:1038F200F00CFF3E031D772C70087104031D672C2A
:103902007508F1007408F000080080308312031378
:10391200E9066D08D5006C08D4006B08D3006A086C
:10392200D2006908D9006808D8006708D70066087D
:10393200D6000A168A11D125831203135508E9000D
:103942005408E8005308E7005208E6000800F800AF
:10395200F401F5017008F200F3017208F600730831
:10396200F700781CBA2C7608F4070318F50A7708D2
:10397200F50701300310F60DF70DFF3E031DBB2CBA
:103982000310F80C7808031DB22C7508F1007408B6
:10399200F0000800F4000130F200720883120313F1
:1039A2009F057408F20002300310F20DFF3E031D62
:1039B200D52C0310720DF30073089F040330F3003B
:1039C2009730F200F20BE32CF30BE32CE82C83127A
:1039D20003131F151F19EB2C1E08F1008316031386
:1039E2001E08F0000800FB01FC01760877040319A9
:1039F2002B2DFD01FD0AF71B0A2D01300310F60DD8
:103A0200F70DFF3E031DFF2C0130FA007A08FD0777
:103A1200FC2C01300310FB0DFC0DFF3E031D0B2D92
:103A220077087902031D172D76087802031C202DD2
:103A32007608F8027708031CF903F9027B140130B7
:103A42000310F70CF60CFF3E031D212D0130FD0281
:103A5200031D0A2D7C08F7007B08F600080083127C
:103A62000313A001A10120087907FC007A08FB00DA
:103A72000318FB0AA01BFB037B08FD007D088312D1
:103A82000313FF007C0884000A128A1500200A161C
:103A92008A15003A0319080020087907FC007A0801
:103AA200FB000318FB0AA01BFB037B08FD007D083B
:103AB20083120313FF007C0884000A128A15002077
:103AC2000A168A150A168A15EC260A168A15013074
:103AD20083120313A0070318A10A0030A107342D93
:103AE20000307005F80000307105F9008030720571
:103AF200FA007F307305FB007B087A0479047804AE
:103B0200031D8B2D0030F3000030F2000030F10075
:103B12000030F00000307405F80000307505F9003F
:103B220080307605FA007F307705FB007B087A0447
:103B320079047804031DA52D0030F7000030F6004B
:103B42000030F5000030F40077087306031DB32D32
:103B520076087206031DB32D75087106031DB32D79
:103B6200740870060319B72D031008000314080027
:103B7200F7007703031DDE2D74087F3EF5007508FC
:103B8200FA007A08F50004300310F50CFF3E031D1D
:103B9200C52D7508F6007608F8007A080F39F50089
:103BA2007508F90078080A168A154B240A168A1530
:103BB20079080A168A154B24080002307706031D7D
:103BC20008007408BF3EF5007508FA007A08F5008F
:103BD20004300310F50CFF3E031DEA2D7508F600B4
:103BE2007608F8007A080F39F5007508F9007808A8
:103BF2000A168A154B240A168A1579080A168A1596
:103C02004B240800F601F31F0D2EF209F309F20A04
:103C12000319F30AF601F60AF11F142EF009F1094D
:103C2200F00A0319F10A700871040319412EF50113
:103C3200F50AF11B282E01300310F00DF10DFF3EA5
:103C4200031D1D2E0130F4007408F5071A2E7108A9
:103C52007302031D2E2E70087202031C362E70088A
:103C6200F2027108031CF303F30201300310F10C9A
:103C7200F00CFF3E031D372E0130F502031D282EE6
:103C820076080319492EF209F309F20A0319F30A15
:103C92007308F1007208F0000800730872047104DE
:103CA20070040319912EF901F90AF31B662E0130F3
:103CB200F8000310F00DF10DF20DF30DF80B5A2E72
:103CC2000130F8007808F907562E73087702031DB1
:103CD200742E72087602031D742E71087502031D7C
:103CE200742E70087402031C842E7008F40271088A
:103CF200031C710FF5027208031C720FF60273089F
:103D0200031C730FF70201300310F30CF20CF10CD9
:103D1200F00CFF3E031D852E0130F902031D662EB5
:103D22007708F3007608F2007508F1007408F000D5
:103D3200080000300A168A1531240A168A15033043
:103D42000A168A154B240A168A150730F5007D30AB
:103D5200F400F40BAA2EF50BAA2E03300A168A15CC
:103D62004B240A168A150F30F5004730F400F40B85
:103D7200B82EF50BB82EBD2E03300A168A154B2429
:103D82000A168A1502300A168A154B240A168A1553
:103D920002300A168A154B240A168A1508300A16AA
:103DA2008A154B240A168A1500300A168A154B24E6
:103DB2000A168A150C300A168A154B240A168A1519
:103DC20000300A168A154B240A168A1506300A167E
:103DD2008A154B240800F40074080F39F1007108A9
:103DE200F2007408F039F1007108F3008312031332
:103DF20086147308F10004300310F10CFF3E031D1A
:103E0200FD2E71080A168A1531240A168A158312A4
:103E1200031306153330F5008230F6000000FF3040
:103E2200F5070318F60AFF30F6077608803AFF0016
:103E320080307F02031D1F2F01307502031C0F2FDC
:103E420083120313061172080A168A1531240A1600
:103E52008A158312031306153330F7008230F800F7
:103E62000000FF30F7070318F80AFF30F807780858
:103E7200803AFF0080307F02031D412F013077021C
:103E8200031C312F8312031306110800831203133C
:103E9200A101F81F532FF709F809F70A0319F80AC5
:103EA200A101A10AFA1F5E2FF909FA09F90A0319F9
:103EB200FA0A0130FB007B08A106A201A3017708E0
:103EC20078040319952FA001A00AF81B742F013062
:103ED2000310F70DF80DFF3E031D692F0130FB00A3
:103EE2007B08A007662F01300310A20DA30DFF3E31
:103EF200031D752F78087A02031D812F7708790236
:103F0200031C8A2F7708F9027808031CFA03FA02C5
:103F1200221401300310F80CF70CFF3E031D8B2F07
:103F22000130A002031D742F210803199D2FA2093D
:103F3200A309A20A0319A30A2308F8002208F7001A
:103F420008000030FC000030FB000030FA000030B6
:103F5200F90073087204710470040319F72FFD014C
:103F6200FD0AF31BC22F0130F8000310F00DF10D12
:103F7200F20DF30DF80BB62F0130F8007808FD07AB
:103F8200B22F0130F8000310F90DFA0DFB0DFC0DF4
:103F9200F80BC42F73087702031DD92F720876021B
:103FA200031DD92F71087502031DD92F70087402E1
:103FB200031CEA2F7008F4027108031C710FF5024A
:103FC2007208031C720FF6027308031C730FF702C8
:103FD200791401300310F30CF20CF10CF00CFF3EDB
:103FE200031DEB2F0130FD02031DC22F7C08F300DD
:0E3FF2007B08F2007A08F1007908F000080060
:02400E0076FF3B
:00000001FF
